{
  "contractName": "AUD",
  "abi": [
    {
      "constant": false,
      "inputs": [
        {
          "name": "spender",
          "type": "address"
        },
        {
          "name": "value",
          "type": "uint256"
        }
      ],
      "name": "approve",
      "outputs": [
        {
          "name": "",
          "type": "bool"
        }
      ],
      "payable": false,
      "stateMutability": "nonpayable",
      "type": "function",
      "signature": "0x095ea7b3"
    },
    {
      "constant": true,
      "inputs": [],
      "name": "totalSupply",
      "outputs": [
        {
          "name": "",
          "type": "uint256"
        }
      ],
      "payable": false,
      "stateMutability": "view",
      "type": "function",
      "signature": "0x18160ddd"
    },
    {
      "constant": false,
      "inputs": [
        {
          "name": "from",
          "type": "address"
        },
        {
          "name": "to",
          "type": "address"
        },
        {
          "name": "value",
          "type": "uint256"
        }
      ],
      "name": "transferFrom",
      "outputs": [
        {
          "name": "",
          "type": "bool"
        }
      ],
      "payable": false,
      "stateMutability": "nonpayable",
      "type": "function",
      "signature": "0x23b872dd"
    },
    {
      "constant": true,
      "inputs": [],
      "name": "_decimals",
      "outputs": [
        {
          "name": "",
          "type": "uint8"
        }
      ],
      "payable": false,
      "stateMutability": "view",
      "type": "function",
      "signature": "0x32424aa3"
    },
    {
      "constant": false,
      "inputs": [
        {
          "name": "spender",
          "type": "address"
        },
        {
          "name": "addedValue",
          "type": "uint256"
        }
      ],
      "name": "increaseAllowance",
      "outputs": [
        {
          "name": "",
          "type": "bool"
        }
      ],
      "payable": false,
      "stateMutability": "nonpayable",
      "type": "function",
      "signature": "0x39509351"
    },
    {
      "constant": true,
      "inputs": [],
      "name": "_totalSupply",
      "outputs": [
        {
          "name": "",
          "type": "uint256"
        }
      ],
      "payable": false,
      "stateMutability": "view",
      "type": "function",
      "signature": "0x3eaaf86b"
    },
    {
      "constant": true,
      "inputs": [
        {
          "name": "",
          "type": "address"
        }
      ],
      "name": "_balances",
      "outputs": [
        {
          "name": "",
          "type": "uint256"
        }
      ],
      "payable": false,
      "stateMutability": "view",
      "type": "function",
      "signature": "0x6ebcf607"
    },
    {
      "constant": true,
      "inputs": [
        {
          "name": "owner",
          "type": "address"
        }
      ],
      "name": "balanceOf",
      "outputs": [
        {
          "name": "",
          "type": "uint256"
        }
      ],
      "payable": false,
      "stateMutability": "view",
      "type": "function",
      "signature": "0x70a08231"
    },
    {
      "constant": false,
      "inputs": [],
      "name": "renounceOwnership",
      "outputs": [],
      "payable": false,
      "stateMutability": "nonpayable",
      "type": "function",
      "signature": "0x715018a6"
    },
    {
      "constant": true,
      "inputs": [],
      "name": "owner",
      "outputs": [
        {
          "name": "",
          "type": "address"
        }
      ],
      "payable": false,
      "stateMutability": "view",
      "type": "function",
      "signature": "0x8da5cb5b"
    },
    {
      "constant": true,
      "inputs": [],
      "name": "isOwner",
      "outputs": [
        {
          "name": "",
          "type": "bool"
        }
      ],
      "payable": false,
      "stateMutability": "view",
      "type": "function",
      "signature": "0x8f32d59b"
    },
    {
      "constant": false,
      "inputs": [
        {
          "name": "spender",
          "type": "address"
        },
        {
          "name": "subtractedValue",
          "type": "uint256"
        }
      ],
      "name": "decreaseAllowance",
      "outputs": [
        {
          "name": "",
          "type": "bool"
        }
      ],
      "payable": false,
      "stateMutability": "nonpayable",
      "type": "function",
      "signature": "0xa457c2d7"
    },
    {
      "constant": false,
      "inputs": [
        {
          "name": "to",
          "type": "address"
        },
        {
          "name": "value",
          "type": "uint256"
        }
      ],
      "name": "transfer",
      "outputs": [
        {
          "name": "",
          "type": "bool"
        }
      ],
      "payable": false,
      "stateMutability": "nonpayable",
      "type": "function",
      "signature": "0xa9059cbb"
    },
    {
      "constant": true,
      "inputs": [],
      "name": "_symbol",
      "outputs": [
        {
          "name": "",
          "type": "string"
        }
      ],
      "payable": false,
      "stateMutability": "view",
      "type": "function",
      "signature": "0xb09f1266"
    },
    {
      "constant": true,
      "inputs": [
        {
          "name": "",
          "type": "address"
        },
        {
          "name": "",
          "type": "address"
        }
      ],
      "name": "_allowed",
      "outputs": [
        {
          "name": "",
          "type": "uint256"
        }
      ],
      "payable": false,
      "stateMutability": "view",
      "type": "function",
      "signature": "0xba0fb861"
    },
    {
      "constant": true,
      "inputs": [],
      "name": "_name",
      "outputs": [
        {
          "name": "",
          "type": "string"
        }
      ],
      "payable": false,
      "stateMutability": "view",
      "type": "function",
      "signature": "0xd28d8852"
    },
    {
      "constant": true,
      "inputs": [
        {
          "name": "owner",
          "type": "address"
        },
        {
          "name": "spender",
          "type": "address"
        }
      ],
      "name": "allowance",
      "outputs": [
        {
          "name": "",
          "type": "uint256"
        }
      ],
      "payable": false,
      "stateMutability": "view",
      "type": "function",
      "signature": "0xdd62ed3e"
    },
    {
      "constant": false,
      "inputs": [
        {
          "name": "newOwner",
          "type": "address"
        }
      ],
      "name": "transferOwnership",
      "outputs": [],
      "payable": false,
      "stateMutability": "nonpayable",
      "type": "function",
      "signature": "0xf2fde38b"
    },
    {
      "inputs": [
        {
          "name": "supply",
          "type": "uint256"
        }
      ],
      "payable": false,
      "stateMutability": "nonpayable",
      "type": "constructor",
      "signature": "constructor"
    },
    {
      "anonymous": false,
      "inputs": [
        {
          "indexed": false,
          "name": "value",
          "type": "uint256"
        }
      ],
      "name": "Minted",
      "type": "event",
      "signature": "0x176b02bb2d12439ff7a20b59f402cca16c76f50508b13ef3166a600eb719354a"
    },
    {
      "anonymous": false,
      "inputs": [
        {
          "indexed": false,
          "name": "value",
          "type": "uint256"
        }
      ],
      "name": "Burned",
      "type": "event",
      "signature": "0xd83c63197e8e676d80ab0122beba9a9d20f3828839e9a1d6fe81d242e9cd7e6e"
    },
    {
      "anonymous": false,
      "inputs": [
        {
          "indexed": true,
          "name": "previousOwner",
          "type": "address"
        }
      ],
      "name": "OwnershipRenounced",
      "type": "event",
      "signature": "0xf8df31144d9c2f0f6b59d69b8b98abd5459d07f2742c4df920b25aae33c64820"
    },
    {
      "anonymous": false,
      "inputs": [
        {
          "indexed": true,
          "name": "previousOwner",
          "type": "address"
        },
        {
          "indexed": true,
          "name": "newOwner",
          "type": "address"
        }
      ],
      "name": "OwnershipTransferred",
      "type": "event",
      "signature": "0x8be0079c531659141344cd1fd0a4f28419497f9722a3daafe3b4186f6b6457e0"
    },
    {
      "anonymous": false,
      "inputs": [
        {
          "indexed": true,
          "name": "from",
          "type": "address"
        },
        {
          "indexed": true,
          "name": "to",
          "type": "address"
        },
        {
          "indexed": false,
          "name": "value",
          "type": "uint256"
        }
      ],
      "name": "Transfer",
      "type": "event",
      "signature": "0xddf252ad1be2c89b69c2b068fc378daa952ba7f163c4a11628f55a4df523b3ef"
    },
    {
      "anonymous": false,
      "inputs": [
        {
          "indexed": true,
          "name": "owner",
          "type": "address"
        },
        {
          "indexed": true,
          "name": "spender",
          "type": "address"
        },
        {
          "indexed": false,
          "name": "value",
          "type": "uint256"
        }
      ],
      "name": "Approval",
      "type": "event",
      "signature": "0x8c5be1e5ebec7d5bd14f71427d1e84f3dd0314c0f7b2291e5b200ac8c7c3b925"
    },
    {
      "constant": false,
      "inputs": [
        {
          "name": "value",
          "type": "uint256"
        }
      ],
      "name": "mint",
      "outputs": [
        {
          "name": "",
          "type": "bool"
        }
      ],
      "payable": false,
      "stateMutability": "nonpayable",
      "type": "function",
      "signature": "0xa0712d68"
    },
    {
      "constant": false,
      "inputs": [
        {
          "name": "value",
          "type": "uint256"
        }
      ],
      "name": "burn",
      "outputs": [
        {
          "name": "",
          "type": "bool"
        }
      ],
      "payable": false,
      "stateMutability": "nonpayable",
      "type": "function",
      "signature": "0x42966c68"
    }
  ],
  "bytecode": "0x60806040526040805190810160405280601081526020017f5761746572204c6564676572204155440000000000000000000000000000000081525060049080519060200190620000519291906200017f565b506040805190810160405280600381526020017f4155440000000000000000000000000000000000000000000000000000000000815250600590805190602001906200009f9291906200017f565b506002600660006101000a81548160ff021916908360ff160217905550348015620000c957600080fd5b50604051602080620024a78339810180604052810190808051906020019092919050505033600360006101000a81548173ffffffffffffffffffffffffffffffffffffffff021916908373ffffffffffffffffffffffffffffffffffffffff16021790555080600281905550806000803373ffffffffffffffffffffffffffffffffffffffff1673ffffffffffffffffffffffffffffffffffffffff16815260200190815260200160002081905550506200022e565b828054600181600116156101000203166002900490600052602060002090601f016020900481019282601f10620001c257805160ff1916838001178555620001f3565b82800160010185558215620001f3579182015b82811115620001f2578251825591602001919060010190620001d5565b5b50905062000202919062000206565b5090565b6200022b91905b80821115620002275760008160009055506001016200020d565b5090565b90565b612269806200023e6000396000f300608060405260043610610112576000357c0100000000000000000000000000000000000000000000000000000000900463ffffffff168063095ea7b31461011757806318160ddd1461017c57806323b872dd146101a757806332424aa31461022c578063395093511461025d5780633eaaf86b146102c257806342966c68146102ed5780636ebcf6071461033257806370a0823114610389578063715018a6146103e05780638da5cb5b146103f75780638f32d59b1461044e578063a0712d681461047d578063a457c2d7146104c2578063a9059cbb14610527578063b09f12661461058c578063ba0fb8611461061c578063d28d885214610693578063dd62ed3e14610723578063f2fde38b1461079a575b600080fd5b34801561012357600080fd5b50610162600480360381019080803573ffffffffffffffffffffffffffffffffffffffff169060200190929190803590602001909291905050506107dd565b604051808215151515815260200191505060405180910390f35b34801561018857600080fd5b50610191610973565b6040518082815260200191505060405180910390f35b3480156101b357600080fd5b50610212600480360381019080803573ffffffffffffffffffffffffffffffffffffffff169060200190929190803573ffffffffffffffffffffffffffffffffffffffff1690602001909291908035906020019092919050505061097d565b604051808215151515815260200191505060405180910390f35b34801561023857600080fd5b50610241610e99565b604051808260ff1660ff16815260200191505060405180910390f35b34801561026957600080fd5b506102a8600480360381019080803573ffffffffffffffffffffffffffffffffffffffff16906020019092919080359060200190929190505050610eac565b604051808215151515815260200191505060405180910390f35b3480156102ce57600080fd5b506102d761114c565b6040518082815260200191505060405180910390f35b3480156102f957600080fd5b5061031860048036038101908080359060200190929190505050611152565b604051808215151515815260200191505060405180910390f35b34801561033e57600080fd5b50610373600480360381019080803573ffffffffffffffffffffffffffffffffffffffff1690602001909291905050506113e6565b6040518082815260200191505060405180910390f35b34801561039557600080fd5b506103ca600480360381019080803573ffffffffffffffffffffffffffffffffffffffff1690602001909291905050506113fe565b6040518082815260200191505060405180910390f35b3480156103ec57600080fd5b506103f5611446565b005b34801561040357600080fd5b5061040c611591565b604051808273ffffffffffffffffffffffffffffffffffffffff1673ffffffffffffffffffffffffffffffffffffffff16815260200191505060405180910390f35b34801561045a57600080fd5b506104636115bb565b604051808215151515815260200191505060405180910390f35b34801561048957600080fd5b506104a860048036038101908080359060200190929190505050611613565b604051808215151515815260200191505060405180910390f35b3480156104ce57600080fd5b5061050d600480360381019080803573ffffffffffffffffffffffffffffffffffffffff1690602001909291908035906020019092919050505061182d565b604051808215151515815260200191505060405180910390f35b34801561053357600080fd5b50610572600480360381019080803573ffffffffffffffffffffffffffffffffffffffff16906020019092919080359060200190929190505050611acd565b604051808215151515815260200191505060405180910390f35b34801561059857600080fd5b506105a1611de5565b6040518080602001828103825283818151815260200191508051906020019080838360005b838110156105e15780820151818401526020810190506105c6565b50505050905090810190601f16801561060e5780820380516001836020036101000a031916815260200191505b509250505060405180910390f35b34801561062857600080fd5b5061067d600480360381019080803573ffffffffffffffffffffffffffffffffffffffff169060200190929190803573ffffffffffffffffffffffffffffffffffffffff169060200190929190505050611e83565b6040518082815260200191505060405180910390f35b34801561069f57600080fd5b506106a8611ea8565b6040518080602001828103825283818151815260200191508051906020019080838360005b838110156106e85780820151818401526020810190506106cd565b50505050905090810190601f1680156107155780820380516001836020036101000a031916815260200191505b509250505060405180910390f35b34801561072f57600080fd5b50610784600480360381019080803573ffffffffffffffffffffffffffffffffffffffff169060200190929190803573ffffffffffffffffffffffffffffffffffffffff169060200190929190505050611f46565b6040518082815260200191505060405180910390f35b3480156107a657600080fd5b506107db600480360381019080803573ffffffffffffffffffffffffffffffffffffffff169060200190929190505050611fcd565b005b60008073ffffffffffffffffffffffffffffffffffffffff168373ffffffffffffffffffffffffffffffffffffffff1614151515610883576040517f08c379a00000000000000000000000000000000000000000000000000000000081526004018080602001828103825260208152602001807f5370656e6465722061646472657373206d757374206e6f74206265207a65726f81525060200191505060405180910390fd5b81600160003373ffffffffffffffffffffffffffffffffffffffff1673ffffffffffffffffffffffffffffffffffffffff16815260200190815260200160002060008573ffffffffffffffffffffffffffffffffffffffff1673ffffffffffffffffffffffffffffffffffffffff168152602001908152602001600020819055508273ffffffffffffffffffffffffffffffffffffffff163373ffffffffffffffffffffffffffffffffffffffff167f8c5be1e5ebec7d5bd14f71427d1e84f3dd0314c0f7b2291e5b200ac8c7c3b925846040518082815260200191505060405180910390a36001905092915050565b6000600254905090565b60008060008573ffffffffffffffffffffffffffffffffffffffff1673ffffffffffffffffffffffffffffffffffffffff168152602001908152602001600020548211151515610a5b576040517f08c379a00000000000000000000000000000000000000000000000000000000081526004018080602001828103825260288152602001807f496e73756666696369656e742062616c616e636520696e207472616e7366657281526020017f206163636f756e7400000000000000000000000000000000000000000000000081525060400191505060405180910390fd5b600160008573ffffffffffffffffffffffffffffffffffffffff1673ffffffffffffffffffffffffffffffffffffffff16815260200190815260200160002060003373ffffffffffffffffffffffffffffffffffffffff1673ffffffffffffffffffffffffffffffffffffffff168152602001908152602001600020548211151515610b4f576040517f08c379a000000000000000000000000000000000000000000000000000000000815260040180806020018281038252601c8152602001807f496e73756666696369656e742062616c616e636520616c6c6f7765640000000081525060200191505060405180910390fd5b600073ffffffffffffffffffffffffffffffffffffffff168373ffffffffffffffffffffffffffffffffffffffff1614151515610bf4576040517f08c379a00000000000000000000000000000000000000000000000000000000081526004018080602001828103825260188152602001807f546f2061646472657373206d757374206e6f742062652030000000000000000081525060200191505060405180910390fd5b610c45826000808773ffffffffffffffffffffffffffffffffffffffff1673ffffffffffffffffffffffffffffffffffffffff1681526020019081526020016000205461207b90919063ffffffff16565b6000808673ffffffffffffffffffffffffffffffffffffffff1673ffffffffffffffffffffffffffffffffffffffff16815260200190815260200160002081905550610cd8826000808673ffffffffffffffffffffffffffffffffffffffff1673ffffffffffffffffffffffffffffffffffffffff1681526020019081526020016000205461209490919063ffffffff16565b6000808573ffffffffffffffffffffffffffffffffffffffff1673ffffffffffffffffffffffffffffffffffffffff16815260200190815260200160002081905550610da982600160008773ffffffffffffffffffffffffffffffffffffffff1673ffffffffffffffffffffffffffffffffffffffff16815260200190815260200160002060003373ffffffffffffffffffffffffffffffffffffffff1673ffffffffffffffffffffffffffffffffffffffff1681526020019081526020016000205461207b90919063ffffffff16565b600160008673ffffffffffffffffffffffffffffffffffffffff1673ffffffffffffffffffffffffffffffffffffffff16815260200190815260200160002060003373ffffffffffffffffffffffffffffffffffffffff1673ffffffffffffffffffffffffffffffffffffffff168152602001908152602001600020819055508273ffffffffffffffffffffffffffffffffffffffff168473ffffffffffffffffffffffffffffffffffffffff167fddf252ad1be2c89b69c2b068fc378daa952ba7f163c4a11628f55a4df523b3ef846040518082815260200191505060405180910390a3600190509392505050565b600660009054906101000a900460ff1681565b60008073ffffffffffffffffffffffffffffffffffffffff168373ffffffffffffffffffffffffffffffffffffffff1614151515610f52576040517f08c379a00000000000000000000000000000000000000000000000000000000081526004018080602001828103825260208152602001807f5370656e6465722061646472657373206d757374206e6f74206265207a65726f81525060200191505060405180910390fd5b610fe182600160003373ffffffffffffffffffffffffffffffffffffffff1673ffffffffffffffffffffffffffffffffffffffff16815260200190815260200160002060008673ffffffffffffffffffffffffffffffffffffffff1673ffffffffffffffffffffffffffffffffffffffff1681526020019081526020016000205461209490919063ffffffff16565b600160003373ffffffffffffffffffffffffffffffffffffffff1673ffffffffffffffffffffffffffffffffffffffff16815260200190815260200160002060008573ffffffffffffffffffffffffffffffffffffffff1673ffffffffffffffffffffffffffffffffffffffff168152602001908152602001600020819055508273ffffffffffffffffffffffffffffffffffffffff163373ffffffffffffffffffffffffffffffffffffffff167f8c5be1e5ebec7d5bd14f71427d1e84f3dd0314c0f7b2291e5b200ac8c7c3b925600160003373ffffffffffffffffffffffffffffffffffffffff1673ffffffffffffffffffffffffffffffffffffffff16815260200190815260200160002060008773ffffffffffffffffffffffffffffffffffffffff1673ffffffffffffffffffffffffffffffffffffffff168152602001908152602001600020546040518082815260200191505060405180910390a36001905092915050565b60025481565b600061115c6115bb565b15156111f6576040517f08c379a00000000000000000000000000000000000000000000000000000000081526004018080602001828103825260268152602001807f4f6e6c7920746865206f776e65722063616e20706572666f726d20746869732081526020017f616374696f6e000000000000000000000000000000000000000000000000000081525060400191505060405180910390fd5b60008211151561126e576040517f08c379a00000000000000000000000000000000000000000000000000000000081526004018080602001828103825260208152602001807f416d6f756e74206d7573742062652067726561746572207468616e207a65726f81525060200191505060405180910390fd5b81600254101515156112e8576040517f08c379a000000000000000000000000000000000000000000000000000000000815260040180806020018281038252601e8152602001807f43616e6e6f74206275726e206d6f7265207468616e20796f752068617665000081525060200191505060405180910390fd5b611340826000806112f7611591565b73ffffffffffffffffffffffffffffffffffffffff1673ffffffffffffffffffffffffffffffffffffffff1681526020019081526020016000205461207b90919063ffffffff16565b60008061134b611591565b73ffffffffffffffffffffffffffffffffffffffff1673ffffffffffffffffffffffffffffffffffffffff1681526020019081526020016000208190555061139e8260025461207b90919063ffffffff16565b6002819055507fd83c63197e8e676d80ab0122beba9a9d20f3828839e9a1d6fe81d242e9cd7e6e6002546040518082815260200191505060405180910390a160019050919050565b60006020528060005260406000206000915090505481565b60008060008373ffffffffffffffffffffffffffffffffffffffff1673ffffffffffffffffffffffffffffffffffffffff168152602001908152602001600020549050919050565b61144e6115bb565b15156114e8576040517f08c379a00000000000000000000000000000000000000000000000000000000081526004018080602001828103825260268152602001807f4f6e6c7920746865206f776e65722063616e20706572666f726d20746869732081526020017f616374696f6e000000000000000000000000000000000000000000000000000081525060400191505060405180910390fd5b600360009054906101000a900473ffffffffffffffffffffffffffffffffffffffff1673ffffffffffffffffffffffffffffffffffffffff167ff8df31144d9c2f0f6b59d69b8b98abd5459d07f2742c4df920b25aae33c6482060405160405180910390a26000600360006101000a81548173ffffffffffffffffffffffffffffffffffffffff021916908373ffffffffffffffffffffffffffffffffffffffff160217905550565b6000600360009054906101000a900473ffffffffffffffffffffffffffffffffffffffff16905090565b6000600360009054906101000a900473ffffffffffffffffffffffffffffffffffffffff1673ffffffffffffffffffffffffffffffffffffffff163373ffffffffffffffffffffffffffffffffffffffff1614905090565b600061161d6115bb565b15156116b7576040517f08c379a00000000000000000000000000000000000000000000000000000000081526004018080602001828103825260268152602001807f4f6e6c7920746865206f776e65722063616e20706572666f726d20746869732081526020017f616374696f6e000000000000000000000000000000000000000000000000000081525060400191505060405180910390fd5b60008211151561172f576040517f08c379a00000000000000000000000000000000000000000000000000000000081526004018080602001828103825260208152602001807f416d6f756e74206d7573742062652067726561746572207468616e207a65726f81525060200191505060405180910390fd5b6117878260008061173e611591565b73ffffffffffffffffffffffffffffffffffffffff1673ffffffffffffffffffffffffffffffffffffffff1681526020019081526020016000205461209490919063ffffffff16565b600080611792611591565b73ffffffffffffffffffffffffffffffffffffffff1673ffffffffffffffffffffffffffffffffffffffff168152602001908152602001600020819055506117e58260025461209490919063ffffffff16565b6002819055507f176b02bb2d12439ff7a20b59f402cca16c76f50508b13ef3166a600eb719354a6002546040518082815260200191505060405180910390a160019050919050565b60008073ffffffffffffffffffffffffffffffffffffffff168373ffffffffffffffffffffffffffffffffffffffff16141515156118d3576040517f08c379a00000000000000000000000000000000000000000000000000000000081526004018080602001828103825260208152602001807f5370656e6465722061646472657373206d757374206e6f74206265207a65726f81525060200191505060405180910390fd5b61196282600160003373ffffffffffffffffffffffffffffffffffffffff1673ffffffffffffffffffffffffffffffffffffffff16815260200190815260200160002060008673ffffffffffffffffffffffffffffffffffffffff1673ffffffffffffffffffffffffffffffffffffffff1681526020019081526020016000205461207b90919063ffffffff16565b600160003373ffffffffffffffffffffffffffffffffffffffff1673ffffffffffffffffffffffffffffffffffffffff16815260200190815260200160002060008573ffffffffffffffffffffffffffffffffffffffff1673ffffffffffffffffffffffffffffffffffffffff168152602001908152602001600020819055508273ffffffffffffffffffffffffffffffffffffffff163373ffffffffffffffffffffffffffffffffffffffff167f8c5be1e5ebec7d5bd14f71427d1e84f3dd0314c0f7b2291e5b200ac8c7c3b925600160003373ffffffffffffffffffffffffffffffffffffffff1673ffffffffffffffffffffffffffffffffffffffff16815260200190815260200160002060008773ffffffffffffffffffffffffffffffffffffffff1673ffffffffffffffffffffffffffffffffffffffff168152602001908152602001600020546040518082815260200191505060405180910390a36001905092915050565b60008060003373ffffffffffffffffffffffffffffffffffffffff1673ffffffffffffffffffffffffffffffffffffffff168152602001908152602001600020548211151515611bab576040517f08c379a00000000000000000000000000000000000000000000000000000000081526004018080602001828103825260258152602001807f5472616e736665722073656e742069732067726561746572207468616e20626181526020017f6c616e636500000000000000000000000000000000000000000000000000000081525060400191505060405180910390fd5b600073ffffffffffffffffffffffffffffffffffffffff168373ffffffffffffffffffffffffffffffffffffffff1614151515611c50576040517f08c379a000000000000000000000000000000000000000000000000000000000815260040180806020018281038252601d8152602001807f4d757374206e6f742073656e6420746f2061646472657373207a65726f00000081525060200191505060405180910390fd5b611ca1826000803373ffffffffffffffffffffffffffffffffffffffff1673ffffffffffffffffffffffffffffffffffffffff1681526020019081526020016000205461207b90919063ffffffff16565b6000803373ffffffffffffffffffffffffffffffffffffffff1673ffffffffffffffffffffffffffffffffffffffff16815260200190815260200160002081905550611d34826000808673ffffffffffffffffffffffffffffffffffffffff1673ffffffffffffffffffffffffffffffffffffffff1681526020019081526020016000205461209490919063ffffffff16565b6000808573ffffffffffffffffffffffffffffffffffffffff1673ffffffffffffffffffffffffffffffffffffffff168152602001908152602001600020819055508273ffffffffffffffffffffffffffffffffffffffff163373ffffffffffffffffffffffffffffffffffffffff167fddf252ad1be2c89b69c2b068fc378daa952ba7f163c4a11628f55a4df523b3ef846040518082815260200191505060405180910390a36001905092915050565b60058054600181600116156101000203166002900480601f016020809104026020016040519081016040528092919081815260200182805460018160011615610100020316600290048015611e7b5780601f10611e5057610100808354040283529160200191611e7b565b820191906000526020600020905b815481529060010190602001808311611e5e57829003601f168201915b505050505081565b6001602052816000526040600020602052806000526040600020600091509150505481565b60048054600181600116156101000203166002900480601f016020809104026020016040519081016040528092919081815260200182805460018160011615610100020316600290048015611f3e5780601f10611f1357610100808354040283529160200191611f3e565b820191906000526020600020905b815481529060010190602001808311611f2157829003601f168201915b505050505081565b6000600160008473ffffffffffffffffffffffffffffffffffffffff1673ffffffffffffffffffffffffffffffffffffffff16815260200190815260200160002060008373ffffffffffffffffffffffffffffffffffffffff1673ffffffffffffffffffffffffffffffffffffffff16815260200190815260200160002054905092915050565b611fd56115bb565b151561206f576040517f08c379a00000000000000000000000000000000000000000000000000000000081526004018080602001828103825260268152602001807f4f6e6c7920746865206f776e65722063616e20706572666f726d20746869732081526020017f616374696f6e000000000000000000000000000000000000000000000000000081525060400191505060405180910390fd5b612078816120b2565b50565b600082821115151561208957fe5b818303905092915050565b60008082840190508381101515156120a857fe5b8091505092915050565b600073ffffffffffffffffffffffffffffffffffffffff168173ffffffffffffffffffffffffffffffffffffffff161415151561217d576040517f08c379a00000000000000000000000000000000000000000000000000000000081526004018080602001828103825260278152602001807f596f752063616e6e6f74207472616e7366657220746f20746865207a65726f2081526020017f616464726573730000000000000000000000000000000000000000000000000081525060400191505060405180910390fd5b8073ffffffffffffffffffffffffffffffffffffffff16600360009054906101000a900473ffffffffffffffffffffffffffffffffffffffff1673ffffffffffffffffffffffffffffffffffffffff167f8be0079c531659141344cd1fd0a4f28419497f9722a3daafe3b4186f6b6457e060405160405180910390a380600360006101000a81548173ffffffffffffffffffffffffffffffffffffffff021916908373ffffffffffffffffffffffffffffffffffffffff160217905550505600a165627a7a72305820450a72258d290d7792d0a10b0a0170300925bcb0038b8bbc6e4997915251b8120029",
  "source": "pragma solidity ^0.4.23;\n\nimport \"./ERC20.sol\";\nimport \"./Ownable.sol\";\nimport \"./SafeMath.sol\";\n\ncontract AUD is ERC20, Ownable  {\n    using SafeMath for uint;\n\n    string public _name = \"Water Ledger AUD\";\n    string public _symbol = \"AUD\";\n    uint8 public _decimals = 2; //megalitres\n\n    constructor(uint256 supply) public {\n        _totalSupply = supply;\n        _balances[msg.sender] = supply;\n    }\n\n    function mint(uint256 value) public onlyOwner returns(bool) {\n        require(value > 0, \"Amount must be greater than zero\");\n\n        _balances[owner()] = _balances[owner()].add(value);\n        _totalSupply = _totalSupply.add(value);\n\n        emit Minted(_totalSupply);\n\n        return true;\n    }\n\n    function burn(uint256 value) public onlyOwner returns (bool) {\n        require(value > 0, \"Amount must be greater than zero\");\n        require(_totalSupply >= value, \"Cannot burn more than you have\");\n\n        _balances[owner()] = _balances[owner()].sub(value);\n        _totalSupply = _totalSupply.sub(value);\n\n        emit Burned(_totalSupply);\n\n        return true;\n    }\n\n    event Minted(uint256 value);\n    event Burned(uint256 value);\n}",
  "sourcePath": "/Users/matt/Code/waterledger/core/contracts/AUD.sol",
  "compiler": {
    "name": "solc",
    "version": "0.4.24+commit.e67f0147.Emscripten.clang"
  },
  "schemaVersion": "3.0.0-beta.0",
  "updatedAt": "2018-09-21T01:41:47.023Z"
}