{
  "contractName": "ERC20",
  "abi": [
    {
      "constant": true,
      "inputs": [],
      "name": "_totalSupply",
      "outputs": [
        {
          "name": "",
          "type": "uint256"
        }
      ],
      "payable": false,
      "stateMutability": "view",
      "type": "function"
    },
    {
      "constant": true,
      "inputs": [
        {
          "name": "",
          "type": "address"
        }
      ],
      "name": "_balances",
      "outputs": [
        {
          "name": "",
          "type": "uint256"
        }
      ],
      "payable": false,
      "stateMutability": "view",
      "type": "function"
    },
    {
      "constant": true,
      "inputs": [
        {
          "name": "",
          "type": "address"
        },
        {
          "name": "",
          "type": "address"
        }
      ],
      "name": "_allowed",
      "outputs": [
        {
          "name": "",
          "type": "uint256"
        }
      ],
      "payable": false,
      "stateMutability": "view",
      "type": "function"
    },
    {
      "anonymous": false,
      "inputs": [
        {
          "indexed": true,
          "name": "from",
          "type": "address"
        },
        {
          "indexed": true,
          "name": "to",
          "type": "address"
        },
        {
          "indexed": false,
          "name": "value",
          "type": "uint256"
        }
      ],
      "name": "Transfer",
      "type": "event"
    },
    {
      "anonymous": false,
      "inputs": [
        {
          "indexed": true,
          "name": "owner",
          "type": "address"
        },
        {
          "indexed": true,
          "name": "spender",
          "type": "address"
        },
        {
          "indexed": false,
          "name": "value",
          "type": "uint256"
        }
      ],
      "name": "Approval",
      "type": "event"
    },
    {
      "constant": true,
      "inputs": [],
      "name": "totalSupply",
      "outputs": [
        {
          "name": "",
          "type": "uint256"
        }
      ],
      "payable": false,
      "stateMutability": "view",
      "type": "function"
    },
    {
      "constant": true,
      "inputs": [
        {
          "name": "owner",
          "type": "address"
        }
      ],
      "name": "balanceOf",
      "outputs": [
        {
          "name": "",
          "type": "uint256"
        }
      ],
      "payable": false,
      "stateMutability": "view",
      "type": "function"
    },
    {
      "constant": true,
      "inputs": [
        {
          "name": "owner",
          "type": "address"
        },
        {
          "name": "spender",
          "type": "address"
        }
      ],
      "name": "allowance",
      "outputs": [
        {
          "name": "",
          "type": "uint256"
        }
      ],
      "payable": false,
      "stateMutability": "view",
      "type": "function"
    },
    {
      "constant": false,
      "inputs": [
        {
          "name": "to",
          "type": "address"
        },
        {
          "name": "value",
          "type": "uint256"
        }
      ],
      "name": "transfer",
      "outputs": [
        {
          "name": "",
          "type": "bool"
        }
      ],
      "payable": false,
      "stateMutability": "nonpayable",
      "type": "function"
    },
    {
      "constant": false,
      "inputs": [
        {
          "name": "spender",
          "type": "address"
        },
        {
          "name": "value",
          "type": "uint256"
        }
      ],
      "name": "approve",
      "outputs": [
        {
          "name": "",
          "type": "bool"
        }
      ],
      "payable": false,
      "stateMutability": "nonpayable",
      "type": "function"
    },
    {
      "constant": false,
      "inputs": [
        {
          "name": "from",
          "type": "address"
        },
        {
          "name": "to",
          "type": "address"
        },
        {
          "name": "value",
          "type": "uint256"
        }
      ],
      "name": "transferFrom",
      "outputs": [
        {
          "name": "",
          "type": "bool"
        }
      ],
      "payable": false,
      "stateMutability": "nonpayable",
      "type": "function"
    },
    {
      "constant": false,
      "inputs": [
        {
          "name": "spender",
          "type": "address"
        },
        {
          "name": "addedValue",
          "type": "uint256"
        }
      ],
      "name": "increaseAllowance",
      "outputs": [
        {
          "name": "",
          "type": "bool"
        }
      ],
      "payable": false,
      "stateMutability": "nonpayable",
      "type": "function"
    },
    {
      "constant": false,
      "inputs": [
        {
          "name": "spender",
          "type": "address"
        },
        {
          "name": "subtractedValue",
          "type": "uint256"
        }
      ],
      "name": "decreaseAllowance",
      "outputs": [
        {
          "name": "",
          "type": "bool"
        }
      ],
      "payable": false,
      "stateMutability": "nonpayable",
      "type": "function"
    }
  ],
  "bytecode": "0x608060405234801561001057600080fd5b50611548806100206000396000f3006080604052600436106100af576000357c0100000000000000000000000000000000000000000000000000000000900463ffffffff168063095ea7b3146100b457806318160ddd1461011957806323b872dd1461014457806339509351146101c95780633eaaf86b1461022e5780636ebcf6071461025957806370a08231146102b0578063a457c2d714610307578063a9059cbb1461036c578063ba0fb861146103d1578063dd62ed3e14610448575b600080fd5b3480156100c057600080fd5b506100ff600480360381019080803573ffffffffffffffffffffffffffffffffffffffff169060200190929190803590602001909291905050506104bf565b604051808215151515815260200191505060405180910390f35b34801561012557600080fd5b5061012e610655565b6040518082815260200191505060405180910390f35b34801561015057600080fd5b506101af600480360381019080803573ffffffffffffffffffffffffffffffffffffffff169060200190929190803573ffffffffffffffffffffffffffffffffffffffff1690602001909291908035906020019092919050505061065f565b604051808215151515815260200191505060405180910390f35b3480156101d557600080fd5b50610214600480360381019080803573ffffffffffffffffffffffffffffffffffffffff16906020019092919080359060200190929190505050610b7b565b604051808215151515815260200191505060405180910390f35b34801561023a57600080fd5b50610243610e1b565b6040518082815260200191505060405180910390f35b34801561026557600080fd5b5061029a600480360381019080803573ffffffffffffffffffffffffffffffffffffffff169060200190929190505050610e21565b6040518082815260200191505060405180910390f35b3480156102bc57600080fd5b506102f1600480360381019080803573ffffffffffffffffffffffffffffffffffffffff169060200190929190505050610e39565b6040518082815260200191505060405180910390f35b34801561031357600080fd5b50610352600480360381019080803573ffffffffffffffffffffffffffffffffffffffff16906020019092919080359060200190929190505050610e81565b604051808215151515815260200191505060405180910390f35b34801561037857600080fd5b506103b7600480360381019080803573ffffffffffffffffffffffffffffffffffffffff16906020019092919080359060200190929190505050611121565b604051808215151515815260200191505060405180910390f35b3480156103dd57600080fd5b50610432600480360381019080803573ffffffffffffffffffffffffffffffffffffffff169060200190929190803573ffffffffffffffffffffffffffffffffffffffff169060200190929190505050611439565b6040518082815260200191505060405180910390f35b34801561045457600080fd5b506104a9600480360381019080803573ffffffffffffffffffffffffffffffffffffffff169060200190929190803573ffffffffffffffffffffffffffffffffffffffff16906020019092919050505061145e565b6040518082815260200191505060405180910390f35b60008073ffffffffffffffffffffffffffffffffffffffff168373ffffffffffffffffffffffffffffffffffffffff1614151515610565576040517f08c379a00000000000000000000000000000000000000000000000000000000081526004018080602001828103825260208152602001807f5370656e6465722061646472657373206d757374206e6f74206265207a65726f81525060200191505060405180910390fd5b81600160003373ffffffffffffffffffffffffffffffffffffffff1673ffffffffffffffffffffffffffffffffffffffff16815260200190815260200160002060008573ffffffffffffffffffffffffffffffffffffffff1673ffffffffffffffffffffffffffffffffffffffff168152602001908152602001600020819055508273ffffffffffffffffffffffffffffffffffffffff163373ffffffffffffffffffffffffffffffffffffffff167f8c5be1e5ebec7d5bd14f71427d1e84f3dd0314c0f7b2291e5b200ac8c7c3b925846040518082815260200191505060405180910390a36001905092915050565b6000600254905090565b60008060008573ffffffffffffffffffffffffffffffffffffffff1673ffffffffffffffffffffffffffffffffffffffff16815260200190815260200160002054821115151561073d576040517f08c379a00000000000000000000000000000000000000000000000000000000081526004018080602001828103825260288152602001807f496e73756666696369656e742062616c616e636520696e207472616e7366657281526020017f206163636f756e7400000000000000000000000000000000000000000000000081525060400191505060405180910390fd5b600160008573ffffffffffffffffffffffffffffffffffffffff1673ffffffffffffffffffffffffffffffffffffffff16815260200190815260200160002060003373ffffffffffffffffffffffffffffffffffffffff1673ffffffffffffffffffffffffffffffffffffffff168152602001908152602001600020548211151515610831576040517f08c379a000000000000000000000000000000000000000000000000000000000815260040180806020018281038252601c8152602001807f496e73756666696369656e742062616c616e636520616c6c6f7765640000000081525060200191505060405180910390fd5b600073ffffffffffffffffffffffffffffffffffffffff168373ffffffffffffffffffffffffffffffffffffffff16141515156108d6576040517f08c379a00000000000000000000000000000000000000000000000000000000081526004018080602001828103825260188152602001807f546f2061646472657373206d757374206e6f742062652030000000000000000081525060200191505060405180910390fd5b610927826000808773ffffffffffffffffffffffffffffffffffffffff1673ffffffffffffffffffffffffffffffffffffffff168152602001908152602001600020546114e590919063ffffffff16565b6000808673ffffffffffffffffffffffffffffffffffffffff1673ffffffffffffffffffffffffffffffffffffffff168152602001908152602001600020819055506109ba826000808673ffffffffffffffffffffffffffffffffffffffff1673ffffffffffffffffffffffffffffffffffffffff168152602001908152602001600020546114fe90919063ffffffff16565b6000808573ffffffffffffffffffffffffffffffffffffffff1673ffffffffffffffffffffffffffffffffffffffff16815260200190815260200160002081905550610a8b82600160008773ffffffffffffffffffffffffffffffffffffffff1673ffffffffffffffffffffffffffffffffffffffff16815260200190815260200160002060003373ffffffffffffffffffffffffffffffffffffffff1673ffffffffffffffffffffffffffffffffffffffff168152602001908152602001600020546114e590919063ffffffff16565b600160008673ffffffffffffffffffffffffffffffffffffffff1673ffffffffffffffffffffffffffffffffffffffff16815260200190815260200160002060003373ffffffffffffffffffffffffffffffffffffffff1673ffffffffffffffffffffffffffffffffffffffff168152602001908152602001600020819055508273ffffffffffffffffffffffffffffffffffffffff168473ffffffffffffffffffffffffffffffffffffffff167fddf252ad1be2c89b69c2b068fc378daa952ba7f163c4a11628f55a4df523b3ef846040518082815260200191505060405180910390a3600190509392505050565b60008073ffffffffffffffffffffffffffffffffffffffff168373ffffffffffffffffffffffffffffffffffffffff1614151515610c21576040517f08c379a00000000000000000000000000000000000000000000000000000000081526004018080602001828103825260208152602001807f5370656e6465722061646472657373206d757374206e6f74206265207a65726f81525060200191505060405180910390fd5b610cb082600160003373ffffffffffffffffffffffffffffffffffffffff1673ffffffffffffffffffffffffffffffffffffffff16815260200190815260200160002060008673ffffffffffffffffffffffffffffffffffffffff1673ffffffffffffffffffffffffffffffffffffffff168152602001908152602001600020546114fe90919063ffffffff16565b600160003373ffffffffffffffffffffffffffffffffffffffff1673ffffffffffffffffffffffffffffffffffffffff16815260200190815260200160002060008573ffffffffffffffffffffffffffffffffffffffff1673ffffffffffffffffffffffffffffffffffffffff168152602001908152602001600020819055508273ffffffffffffffffffffffffffffffffffffffff163373ffffffffffffffffffffffffffffffffffffffff167f8c5be1e5ebec7d5bd14f71427d1e84f3dd0314c0f7b2291e5b200ac8c7c3b925600160003373ffffffffffffffffffffffffffffffffffffffff1673ffffffffffffffffffffffffffffffffffffffff16815260200190815260200160002060008773ffffffffffffffffffffffffffffffffffffffff1673ffffffffffffffffffffffffffffffffffffffff168152602001908152602001600020546040518082815260200191505060405180910390a36001905092915050565b60025481565b60006020528060005260406000206000915090505481565b60008060008373ffffffffffffffffffffffffffffffffffffffff1673ffffffffffffffffffffffffffffffffffffffff168152602001908152602001600020549050919050565b60008073ffffffffffffffffffffffffffffffffffffffff168373ffffffffffffffffffffffffffffffffffffffff1614151515610f27576040517f08c379a00000000000000000000000000000000000000000000000000000000081526004018080602001828103825260208152602001807f5370656e6465722061646472657373206d757374206e6f74206265207a65726f81525060200191505060405180910390fd5b610fb682600160003373ffffffffffffffffffffffffffffffffffffffff1673ffffffffffffffffffffffffffffffffffffffff16815260200190815260200160002060008673ffffffffffffffffffffffffffffffffffffffff1673ffffffffffffffffffffffffffffffffffffffff168152602001908152602001600020546114e590919063ffffffff16565b600160003373ffffffffffffffffffffffffffffffffffffffff1673ffffffffffffffffffffffffffffffffffffffff16815260200190815260200160002060008573ffffffffffffffffffffffffffffffffffffffff1673ffffffffffffffffffffffffffffffffffffffff168152602001908152602001600020819055508273ffffffffffffffffffffffffffffffffffffffff163373ffffffffffffffffffffffffffffffffffffffff167f8c5be1e5ebec7d5bd14f71427d1e84f3dd0314c0f7b2291e5b200ac8c7c3b925600160003373ffffffffffffffffffffffffffffffffffffffff1673ffffffffffffffffffffffffffffffffffffffff16815260200190815260200160002060008773ffffffffffffffffffffffffffffffffffffffff1673ffffffffffffffffffffffffffffffffffffffff168152602001908152602001600020546040518082815260200191505060405180910390a36001905092915050565b60008060003373ffffffffffffffffffffffffffffffffffffffff1673ffffffffffffffffffffffffffffffffffffffff1681526020019081526020016000205482111515156111ff576040517f08c379a00000000000000000000000000000000000000000000000000000000081526004018080602001828103825260258152602001807f5472616e736665722073656e742069732067726561746572207468616e20626181526020017f6c616e636500000000000000000000000000000000000000000000000000000081525060400191505060405180910390fd5b600073ffffffffffffffffffffffffffffffffffffffff168373ffffffffffffffffffffffffffffffffffffffff16141515156112a4576040517f08c379a000000000000000000000000000000000000000000000000000000000815260040180806020018281038252601d8152602001807f4d757374206e6f742073656e6420746f2061646472657373207a65726f00000081525060200191505060405180910390fd5b6112f5826000803373ffffffffffffffffffffffffffffffffffffffff1673ffffffffffffffffffffffffffffffffffffffff168152602001908152602001600020546114e590919063ffffffff16565b6000803373ffffffffffffffffffffffffffffffffffffffff1673ffffffffffffffffffffffffffffffffffffffff16815260200190815260200160002081905550611388826000808673ffffffffffffffffffffffffffffffffffffffff1673ffffffffffffffffffffffffffffffffffffffff168152602001908152602001600020546114fe90919063ffffffff16565b6000808573ffffffffffffffffffffffffffffffffffffffff1673ffffffffffffffffffffffffffffffffffffffff168152602001908152602001600020819055508273ffffffffffffffffffffffffffffffffffffffff163373ffffffffffffffffffffffffffffffffffffffff167fddf252ad1be2c89b69c2b068fc378daa952ba7f163c4a11628f55a4df523b3ef846040518082815260200191505060405180910390a36001905092915050565b6001602052816000526040600020602052806000526040600020600091509150505481565b6000600160008473ffffffffffffffffffffffffffffffffffffffff1673ffffffffffffffffffffffffffffffffffffffff16815260200190815260200160002060008373ffffffffffffffffffffffffffffffffffffffff1673ffffffffffffffffffffffffffffffffffffffff16815260200190815260200160002054905092915050565b60008282111515156114f357fe5b818303905092915050565b600080828401905083811015151561151257fe5b80915050929150505600a165627a7a7230582074082bb9954fead476257590e3bb6eb45155e94eb9a7b19dc33731a43a3986dd0029",
  "source": "pragma solidity ^0.4.24;\n\nimport \"./IERC20.sol\";\nimport \"./SafeMath.sol\";\n\n/**\n* @title Standard ERC20 token\n*\n* @dev Implementation of the basic standard token.\n* https://github.com/ethereum/EIPs/blob/master/EIPS/eip-20.md\n* Originally based on code by FirstBlood: https://github.com/Firstbloodio/token/blob/master/smart_contract/FirstBloodToken.sol\n*/\ncontract ERC20 is IERC20 {\n    using SafeMath for uint256;\n\n    mapping (address => uint256) public _balances;\n\n    mapping (address => mapping (address => uint256)) public _allowed;\n\n    uint256 public _totalSupply;\n\n    /**\n    * @dev Total number of tokens in existence\n    */\n    function totalSupply() public view returns (uint256) {\n        return _totalSupply;\n    }\n\n    /**\n    * @dev Gets the balance of the specified address.\n    * @param owner The address to query the balance of.\n    * @return An uint256 representing the amount owned by the passed address.\n    */\n    function balanceOf(address owner) public view returns (uint256) {\n        return _balances[owner];\n    }\n\n    /**\n    * @dev Function to check the amount of tokens that an owner allowed to a spender.\n    * @param owner address The address which owns the funds.\n    * @param spender address The address which will spend the funds.\n    * @return A uint256 specifying the amount of tokens still available for the spender.\n    */\n    function allowance(address owner, address spender) public view returns (uint256) {\n        return _allowed[owner][spender];\n    }\n\n    /**\n    * @dev Transfer token for a specified address\n    * @param to The address to transfer to.\n    * @param value The amount to be transferred.\n    */\n    function transfer(address to, uint256 value) public returns (bool) {\n        require(value <= _balances[msg.sender], \"Transfer sent is greater than balance\");\n        require(to != address(0), \"Must not send to address zero\");\n\n        _balances[msg.sender] = _balances[msg.sender].sub(value);\n        _balances[to] = _balances[to].add(value);\n        emit Transfer(msg.sender, to, value);\n        return true;\n    }\n\n    /**\n    * @dev Approve the passed address to spend the specified amount of tokens on behalf of msg.sender.\n    * Beware that changing an allowance with this method brings the risk that someone may use both the old\n    * and the new allowance by unfortunate transaction ordering. One possible solution to mitigate this\n    * race condition is to first reduce the spender's allowance to 0 and set the desired value afterwards:\n    * https://github.com/ethereum/EIPs/issues/20#issuecomment-263524729\n    * @param spender The address which will spend the funds.\n    * @param value The amount of tokens to be spent.\n    */\n    function approve(address spender, uint256 value) public returns (bool) {\n        require(spender != address(0), \"Spender address must not be zero\");\n\n        _allowed[msg.sender][spender] = value;\n        emit Approval(msg.sender, spender, value);\n        return true;\n    }\n\n    /**\n    * @dev Transfer tokens from one address to another\n    * @param from address The address which you want to send tokens from\n    * @param to address The address which you want to transfer to\n    * @param value uint256 the amount of tokens to be transferred\n    */\n    function transferFrom(\n        address from,\n        address to,\n        uint256 value\n    )\n        public\n        returns (bool)\n    {\n        require(value <= _balances[from], \"Insufficient balance in transfer account\");\n        require(value <= _allowed[from][msg.sender], \"Insufficient balance allowed\");\n        require(to != address(0), \"To address must not be 0\");\n\n        _balances[from] = _balances[from].sub(value);\n        _balances[to] = _balances[to].add(value);\n        _allowed[from][msg.sender] = _allowed[from][msg.sender].sub(value);\n        emit Transfer(from, to, value);\n        return true;\n    }\n\n    /**\n    * @dev Increase the amount of tokens that an owner allowed to a spender.\n    * approve should be called when allowed_[_spender] == 0. To increment\n    * allowed value is better to use this function to avoid 2 calls (and wait until\n    * the first transaction is mined)\n    * From MonolithDAO Token.sol\n    * @param spender The address which will spend the funds.\n    * @param addedValue The amount of tokens to increase the allowance by.\n    */\n    function increaseAllowance(\n        address spender,\n        uint256 addedValue\n    )\n        public\n        returns (bool)\n    {\n        require(spender != address(0), \"Spender address must not be zero\");\n\n        _allowed[msg.sender][spender] = (\n        _allowed[msg.sender][spender].add(addedValue));\n        emit Approval(msg.sender, spender, _allowed[msg.sender][spender]);\n        return true;\n    }\n\n    /**\n    * @dev Decrease the amount of tokens that an owner allowed to a spender.\n    * approve should be called when allowed_[_spender] == 0. To decrement\n    * allowed value is better to use this function to avoid 2 calls (and wait until\n    * the first transaction is mined)\n    * From MonolithDAO Token.sol\n    * @param spender The address which will spend the funds.\n    * @param subtractedValue The amount of tokens to decrease the allowance by.\n    */\n    function decreaseAllowance(\n        address spender,\n        uint256 subtractedValue\n    )\n        public\n        returns (bool)\n    {\n        require(spender != address(0), \"Spender address must not be zero\");\n\n        _allowed[msg.sender][spender] = (\n        _allowed[msg.sender][spender].sub(subtractedValue));\n        emit Approval(msg.sender, spender, _allowed[msg.sender][spender]);\n        return true;\n    }\n\n    /**\n    * @dev Internal function that mints an amount of the token and assigns it to\n    * an account. This encapsulates the modification of balances such that the\n    * proper events are emitted.\n    * @param account The account that will receive the created tokens.\n    * @param amount The amount that will be created.\n    */\n    function _mint(address account, uint256 amount) internal {\n        require(account != 0, \"Minting account address must not be zero\");\n        _totalSupply = _totalSupply.add(amount);\n        _balances[account] = _balances[account].add(amount);\n        emit Transfer(address(0), account, amount);\n    }\n\n    /**\n    * @dev Internal function that burns an amount of the token of a given\n    * account.\n    * @param account The account whose tokens will be burnt.\n    * @param amount The amount that will be burnt.\n    */\n    function _burn(address account, uint256 amount) internal {\n        require(account != 0, \"Burn account address must not be zero\");\n        require(amount <= _balances[account], \"Account balance is less than amount to burn\");\n\n        _totalSupply = _totalSupply.sub(amount);\n        _balances[account] = _balances[account].sub(amount);\n        emit Transfer(account, address(0), amount);\n    }\n\n    /**\n    * @dev Internal function that burns an amount of the token of a given\n    * account, deducting from the sender's allowance for said account. Uses the\n    * internal burn function.\n    * @param account The account whose tokens will be burnt.\n    * @param amount The amount that will be burnt.\n    */\n    function _burnFrom(address account, uint256 amount) internal {\n        require(amount <= _allowed[account][msg.sender], \"Account balance is less than allowed to burn\");\n\n        // Should https://github.com/OpenZeppelin/zeppelin-solidity/issues/707 be accepted,\n        // this function needs to emit an event with the updated approval.\n        _allowed[account][msg.sender] = _allowed[account][msg.sender].sub(amount);\n        _burn(account, amount);\n    }\n}",
  "sourcePath": "/Users/matt/Code/waterledger/core/contracts/ERC20.sol",
  "compiler": {
    "name": "solc",
    "version": "0.4.24+commit.e67f0147.Emscripten.clang"
  },
  "schemaVersion": "3.0.0-beta.0",
  "updatedAt": "2018-09-21T01:41:10.825Z"
}