{
  "contractName": "Exchange",
  "abi": [
    {
      "constant": true,
      "inputs": [
        {
          "name": "",
          "type": "uint256"
        }
      ],
      "name": "trades",
      "outputs": [
        {
          "name": "amount",
          "type": "uint256"
        },
        {
          "name": "offer",
          "type": "uint256"
        },
        {
          "name": "owner",
          "type": "address"
        },
        {
          "name": "expires",
          "type": "uint256"
        }
      ],
      "payable": false,
      "stateMutability": "view",
      "type": "function",
      "signature": "0x1e6c598e"
    },
    {
      "inputs": [],
      "payable": false,
      "stateMutability": "nonpayable",
      "type": "constructor",
      "signature": "constructor"
    }
  ],
  "bytecode": "0x608060405234801561001057600080fd5b5033600160006101000a81548173ffffffffffffffffffffffffffffffffffffffff021916908373ffffffffffffffffffffffffffffffffffffffff160217905550610153806100616000396000f300608060405260043610610041576000357c0100000000000000000000000000000000000000000000000000000000900463ffffffff1680631e6c598e14610046575b600080fd5b34801561005257600080fd5b50610071600480360381019080803590602001909291905050506100c8565b604051808581526020018481526020018373ffffffffffffffffffffffffffffffffffffffff1673ffffffffffffffffffffffffffffffffffffffff16815260200182815260200194505050505060405180910390f35b6002818154811015156100d757fe5b90600052602060002090600402016000915090508060000154908060010154908060020160009054906101000a900473ffffffffffffffffffffffffffffffffffffffff169080600301549050845600a165627a7a72305820ca67139fed9d797e7e40155eb018717c732e3af4f87d40aedef43bde969016830029",
  "source": "pragma solidity ^0.4.24;\n\nimport \"./ERC20.sol\";\nimport \"./AUD.sol\";\n\ncontract Exchange {\n\n    ERC20 _aud;\n\n    address private _owner;\n\n    Trade[] public trades;\n\n    struct Trade {\n        uint256 amount; //water\n        uint256 offer; //aud\n        address owner;\n        uint256 expires;\n    }\n\n    constructor () public {\n        _owner = msg.sender;\n        //_aud = AUD(aud);\n    }\n}",
  "sourcePath": "/Users/matt/Code/waterledger/core/contracts/Exchange.sol",
  "compiler": {
    "name": "solc",
    "version": "0.4.24+commit.e67f0147.Emscripten.clang"
  },
  "schemaVersion": "3.0.0-beta.0",
  "updatedAt": "2018-09-17T05:14:55.154Z"
}