{
  "contractName": "OrderBook",
  "abi": [
    {
      "constant": true,
      "inputs": [],
      "name": "_stats",
      "outputs": [
        {
          "name": "",
          "type": "address"
        }
      ],
      "payable": false,
      "stateMutability": "view",
      "type": "function"
    },
    {
      "constant": true,
      "inputs": [
        {
          "name": "",
          "type": "uint256"
        }
      ],
      "name": "_asks",
      "outputs": [
        {
          "name": "owner",
          "type": "address"
        },
        {
          "name": "quantity",
          "type": "uint256"
        },
        {
          "name": "price",
          "type": "uint256"
        }
      ],
      "payable": false,
      "stateMutability": "view",
      "type": "function"
    },
    {
      "constant": true,
      "inputs": [],
      "name": "_water",
      "outputs": [
        {
          "name": "",
          "type": "address"
        }
      ],
      "payable": false,
      "stateMutability": "view",
      "type": "function"
    },
    {
      "inputs": [
        {
          "name": "statsContract",
          "type": "address"
        },
        {
          "name": "waterContract",
          "type": "address"
        }
      ],
      "payable": false,
      "stateMutability": "nonpayable",
      "type": "constructor"
    },
    {
      "anonymous": false,
      "inputs": [
        {
          "indexed": false,
          "name": "_stats",
          "type": "address"
        }
      ],
      "name": "OrderAdded",
      "type": "event"
    },
    {
      "constant": false,
      "inputs": [
        {
          "name": "price",
          "type": "uint256"
        },
        {
          "name": "quantity",
          "type": "uint256"
        }
      ],
      "name": "addSellLimitOrder",
      "outputs": [],
      "payable": false,
      "stateMutability": "nonpayable",
      "type": "function"
    }
  ],
  "bytecode": "0x608060405234801561001057600080fd5b506040516040806107d6833981018060405281019080805190602001909291908051906020019092919050505081600160006101000a81548173ffffffffffffffffffffffffffffffffffffffff021916908373ffffffffffffffffffffffffffffffffffffffff160217905550806000806101000a81548173ffffffffffffffffffffffffffffffffffffffff021916908373ffffffffffffffffffffffffffffffffffffffff1602179055505050610707806100cf6000396000f300608060405260043610610062576000357c0100000000000000000000000000000000000000000000000000000000900463ffffffff1680635f712dbf14610067578063a1f6a1ff146100be578063c330a29714610139578063e20d966b14610190575b600080fd5b34801561007357600080fd5b5061007c6101c7565b604051808273ffffffffffffffffffffffffffffffffffffffff1673ffffffffffffffffffffffffffffffffffffffff16815260200191505060405180910390f35b3480156100ca57600080fd5b506100e9600480360381019080803590602001909291905050506101ed565b604051808473ffffffffffffffffffffffffffffffffffffffff1673ffffffffffffffffffffffffffffffffffffffff168152602001838152602001828152602001935050505060405180910390f35b34801561014557600080fd5b5061014e610246565b604051808273ffffffffffffffffffffffffffffffffffffffff1673ffffffffffffffffffffffffffffffffffffffff16815260200191505060405180910390f35b34801561019c57600080fd5b506101c5600480360381019080803590602001909291908035906020019092919050505061026b565b005b600160009054906101000a900473ffffffffffffffffffffffffffffffffffffffff1681565b6002818154811015156101fc57fe5b90600052602060002090600302016000915090508060000160009054906101000a900473ffffffffffffffffffffffffffffffffffffffff16908060010154908060020154905083565b6000809054906101000a900473ffffffffffffffffffffffffffffffffffffffff1681565b60008111801561027b5750600082115b15156102ef576040517f08c379a000000000000000000000000000000000000000000000000000000000815260040180806020018281038252601d8152602001807f56616c756573206d7573742062652067726561746572207468616e203000000081525060200191505060405180910390fd5b600073ffffffffffffffffffffffffffffffffffffffff166000809054906101000a900473ffffffffffffffffffffffffffffffffffffffff1673ffffffffffffffffffffffffffffffffffffffff161415156104b557806000809054906101000a900473ffffffffffffffffffffffffffffffffffffffff1673ffffffffffffffffffffffffffffffffffffffff166370a08231336040518263ffffffff167c0100000000000000000000000000000000000000000000000000000000028152600401808273ffffffffffffffffffffffffffffffffffffffff1673ffffffffffffffffffffffffffffffffffffffff168152602001915050602060405180830381600087803b15801561040357600080fd5b505af1158015610417573d6000803e3d6000fd5b505050506040513d602081101561042d57600080fd5b8101908080519060200190929190505050101515156104b4576040517f08c379a000000000000000000000000000000000000000000000000000000000815260040180806020018281038252601d8152602001807f496e73756666696369656e7420776174657220616c6c6f636174696f6e00000081525060200191505060405180910390fd5b5b60026060604051908101604052803373ffffffffffffffffffffffffffffffffffffffff168152602001838152602001848152509080600181540180825580915050906001820390600052602060002090600302016000909192909190915060008201518160000160006101000a81548173ffffffffffffffffffffffffffffffffffffffff021916908373ffffffffffffffffffffffffffffffffffffffff1602179055506020820151816001015560408201518160020155505050600073ffffffffffffffffffffffffffffffffffffffff16600160009054906101000a900473ffffffffffffffffffffffffffffffffffffffff1673ffffffffffffffffffffffffffffffffffffffff1614151561067457600160009054906101000a900473ffffffffffffffffffffffffffffffffffffffff1673ffffffffffffffffffffffffffffffffffffffff166396455e13826040518263ffffffff167c010000000000000000000000000000000000000000000000000000000002815260040180828152602001915050600060405180830381600087803b15801561065b57600080fd5b505af115801561066f573d6000803e3d6000fd5b505050505b7f9b0548ddacd7b2f31852ad0ce5af1d780efea21568275e609c14741246bfaeea33604051808273ffffffffffffffffffffffffffffffffffffffff1673ffffffffffffffffffffffffffffffffffffffff16815260200191505060405180910390a150505600a165627a7a723058209e4c42121453d4e1a07c4ba68b0ae19df33f9b430f3a08bba937c9470336ef790029",
  "source": "pragma solidity ^0.4.24;\n\nimport \"./Ownable.sol\";\nimport \"./Water.sol\";\nimport \"./Stats.sol\";\nimport \"./ERC20.sol\";\n\ncontract OrderBook {\n    ERC20 public _water;\n    Stats public _stats;\n\n    struct Order {\n        address owner;\n        uint256 quantity;\n        uint256 price;\n    }\n\n    Order[] public _asks;\n\n    constructor (address statsContract, address waterContract) public {\n        _stats = Stats(statsContract);\n        _water = Water(waterContract);\n    }\n\n    function addSellLimitOrder(uint256 price, uint256 quantity) public {\n        require(quantity > 0 && price > 0, \"Values must be greater than 0\");\n\n        if(_water != address(0)){\n            require(_water.balanceOf(msg.sender) >= quantity, \"Insufficient water allocation\");\n        }\n\n        _asks.push(Order(msg.sender, quantity, price));\n\n        if(_stats != address(0)){\n            _stats.updateVolumeAvailable(quantity);\n        }\n\n        emit OrderAdded(msg.sender);\n    }\n\n    event OrderAdded(address _stats);\n}",
  "sourcePath": "/Users/mattb/Code/waterledger/core/contracts/OrderBook.sol",
  "compiler": {
    "name": "solc",
    "version": "0.4.24+commit.e67f0147.Emscripten.clang"
  },
  "schemaVersion": "3.0.0-beta.0",
  "updatedAt": "2018-09-20T05:19:07.786Z"
}