{
  "contractName": "OrderBook",
  "abi": [
    {
      "constant": true,
      "inputs": [
        {
          "name": "",
          "type": "uint256"
        }
      ],
      "name": "_offers",
      "outputs": [
        {
          "name": "owner",
          "type": "address"
        },
        {
          "name": "quantity",
          "type": "uint256"
        },
        {
          "name": "price",
          "type": "uint256"
        }
      ],
      "payable": false,
      "stateMutability": "view",
      "type": "function",
      "signature": "0x2d461c41"
    },
    {
      "constant": true,
      "inputs": [],
      "name": "_aud",
      "outputs": [
        {
          "name": "",
          "type": "address"
        }
      ],
      "payable": false,
      "stateMutability": "view",
      "type": "function",
      "signature": "0x5b14e6c5"
    },
    {
      "constant": true,
      "inputs": [],
      "name": "_stats",
      "outputs": [
        {
          "name": "",
          "type": "address"
        }
      ],
      "payable": false,
      "stateMutability": "view",
      "type": "function",
      "signature": "0x5f712dbf"
    },
    {
      "constant": true,
      "inputs": [
        {
          "name": "",
          "type": "uint256"
        }
      ],
      "name": "_asks",
      "outputs": [
        {
          "name": "owner",
          "type": "address"
        },
        {
          "name": "quantity",
          "type": "uint256"
        },
        {
          "name": "price",
          "type": "uint256"
        }
      ],
      "payable": false,
      "stateMutability": "view",
      "type": "function",
      "signature": "0xa1f6a1ff"
    },
    {
      "constant": true,
      "inputs": [],
      "name": "_water",
      "outputs": [
        {
          "name": "",
          "type": "address"
        }
      ],
      "payable": false,
      "stateMutability": "view",
      "type": "function",
      "signature": "0xc330a297"
    },
    {
      "inputs": [
        {
          "name": "statsContract",
          "type": "address"
        },
        {
          "name": "waterContract",
          "type": "address"
        },
        {
          "name": "audContract",
          "type": "address"
        }
      ],
      "payable": false,
      "stateMutability": "nonpayable",
      "type": "constructor",
      "signature": "constructor"
    },
    {
      "anonymous": false,
      "inputs": [
        {
          "indexed": false,
          "name": "_stats",
          "type": "address"
        }
      ],
      "name": "OrderAdded",
      "type": "event",
      "signature": "0x9b0548ddacd7b2f31852ad0ce5af1d780efea21568275e609c14741246bfaeea"
    },
    {
      "constant": true,
      "inputs": [],
      "name": "getStatsParent",
      "outputs": [
        {
          "name": "",
          "type": "address"
        }
      ],
      "payable": false,
      "stateMutability": "view",
      "type": "function",
      "signature": "0xd9ca6b38"
    },
    {
      "constant": false,
      "inputs": [
        {
          "name": "price",
          "type": "uint256"
        },
        {
          "name": "quantity",
          "type": "uint256"
        }
      ],
      "name": "addSellLimitOrder",
      "outputs": [],
      "payable": false,
      "stateMutability": "nonpayable",
      "type": "function",
      "signature": "0xe20d966b"
    },
    {
      "constant": false,
      "inputs": [
        {
          "name": "price",
          "type": "uint256"
        },
        {
          "name": "quantity",
          "type": "uint256"
        }
      ],
      "name": "addBuyLimitOrder",
      "outputs": [],
      "payable": false,
      "stateMutability": "nonpayable",
      "type": "function",
      "signature": "0x035bbaba"
    }
  ],
  "bytecode": "0x608060405234801561001057600080fd5b50604051606080610d5b83398101806040528101908080519060200190929190805190602001909291908051906020019092919050505082600160006101000a81548173ffffffffffffffffffffffffffffffffffffffff021916908373ffffffffffffffffffffffffffffffffffffffff160217905550816000806101000a81548173ffffffffffffffffffffffffffffffffffffffff021916908373ffffffffffffffffffffffffffffffffffffffff16021790555080600260006101000a81548173ffffffffffffffffffffffffffffffffffffffff021916908373ffffffffffffffffffffffffffffffffffffffff160217905550505050610c408061011b6000396000f30060806040526004361061008e576000357c0100000000000000000000000000000000000000000000000000000000900463ffffffff168063035bbaba146100935780632d461c41146100ca5780635b14e6c5146101455780635f712dbf1461019c578063a1f6a1ff146101f3578063c330a2971461026e578063d9ca6b38146102c5578063e20d966b1461031c575b600080fd5b34801561009f57600080fd5b506100c86004803603810190808035906020019092919080359060200190929190505050610353565b005b3480156100d657600080fd5b506100f56004803603810190808035906020019092919050505061066a565b604051808473ffffffffffffffffffffffffffffffffffffffff1673ffffffffffffffffffffffffffffffffffffffff168152602001838152602001828152602001935050505060405180910390f35b34801561015157600080fd5b5061015a6106c3565b604051808273ffffffffffffffffffffffffffffffffffffffff1673ffffffffffffffffffffffffffffffffffffffff16815260200191505060405180910390f35b3480156101a857600080fd5b506101b16106e9565b604051808273ffffffffffffffffffffffffffffffffffffffff1673ffffffffffffffffffffffffffffffffffffffff16815260200191505060405180910390f35b3480156101ff57600080fd5b5061021e6004803603810190808035906020019092919050505061070f565b604051808473ffffffffffffffffffffffffffffffffffffffff1673ffffffffffffffffffffffffffffffffffffffff168152602001838152602001828152602001935050505060405180910390f35b34801561027a57600080fd5b50610283610768565b604051808273ffffffffffffffffffffffffffffffffffffffff1673ffffffffffffffffffffffffffffffffffffffff16815260200191505060405180910390f35b3480156102d157600080fd5b506102da61078d565b604051808273ffffffffffffffffffffffffffffffffffffffff1673ffffffffffffffffffffffffffffffffffffffff16815260200191505060405180910390f35b34801561032857600080fd5b506103516004803603810190808035906020019092919080359060200190929190505050610855565b005b6000811180156103635750600082115b15156103d7576040517f08c379a000000000000000000000000000000000000000000000000000000000815260040180806020018281038252601d8152602001807f56616c756573206d7573742062652067726561746572207468616e203000000081525060200191505060405180910390fd5b80600260009054906101000a900473ffffffffffffffffffffffffffffffffffffffff1673ffffffffffffffffffffffffffffffffffffffff166370a08231336040518263ffffffff167c0100000000000000000000000000000000000000000000000000000000028152600401808273ffffffffffffffffffffffffffffffffffffffff1673ffffffffffffffffffffffffffffffffffffffff168152602001915050602060405180830381600087803b15801561049557600080fd5b505af11580156104a9573d6000803e3d6000fd5b505050506040513d60208110156104bf57600080fd5b810190808051906020019092919050505010151515610546576040517f08c379a000000000000000000000000000000000000000000000000000000000815260040180806020018281038252601b8152602001807f496e73756666696369656e742041554420616c6c6f636174696f6e000000000081525060200191505060405180910390fd5b60046060604051908101604052803373ffffffffffffffffffffffffffffffffffffffff168152602001838152602001848152509080600181540180825580915050906001820390600052602060002090600302016000909192909190915060008201518160000160006101000a81548173ffffffffffffffffffffffffffffffffffffffff021916908373ffffffffffffffffffffffffffffffffffffffff16021790555060208201518160010155604082015181600201555050507f9b0548ddacd7b2f31852ad0ce5af1d780efea21568275e609c14741246bfaeea33604051808273ffffffffffffffffffffffffffffffffffffffff1673ffffffffffffffffffffffffffffffffffffffff16815260200191505060405180910390a15050565b60048181548110151561067957fe5b90600052602060002090600302016000915090508060000160009054906101000a900473ffffffffffffffffffffffffffffffffffffffff16908060010154908060020154905083565b600260009054906101000a900473ffffffffffffffffffffffffffffffffffffffff1681565b600160009054906101000a900473ffffffffffffffffffffffffffffffffffffffff1681565b60038181548110151561071e57fe5b90600052602060002090600302016000915090508060000160009054906101000a900473ffffffffffffffffffffffffffffffffffffffff16908060010154908060020154905083565b6000809054906101000a900473ffffffffffffffffffffffffffffffffffffffff1681565b6000600160009054906101000a900473ffffffffffffffffffffffffffffffffffffffff1673ffffffffffffffffffffffffffffffffffffffff1663027b753f6040518163ffffffff167c0100000000000000000000000000000000000000000000000000000000028152600401602060405180830381600087803b15801561081557600080fd5b505af1158015610829573d6000803e3d6000fd5b505050506040513d602081101561083f57600080fd5b8101908080519060200190929190505050905090565b6000811180156108655750600082115b15156108d9576040517f08c379a000000000000000000000000000000000000000000000000000000000815260040180806020018281038252601d8152602001807f56616c756573206d7573742062652067726561746572207468616e203000000081525060200191505060405180910390fd5b806000809054906101000a900473ffffffffffffffffffffffffffffffffffffffff1673ffffffffffffffffffffffffffffffffffffffff166370a08231336040518263ffffffff167c0100000000000000000000000000000000000000000000000000000000028152600401808273ffffffffffffffffffffffffffffffffffffffff1673ffffffffffffffffffffffffffffffffffffffff168152602001915050602060405180830381600087803b15801561099657600080fd5b505af11580156109aa573d6000803e3d6000fd5b505050506040513d60208110156109c057600080fd5b810190808051906020019092919050505010151515610a47576040517f08c379a000000000000000000000000000000000000000000000000000000000815260040180806020018281038252601d8152602001807f496e73756666696369656e7420776174657220616c6c6f636174696f6e00000081525060200191505060405180910390fd5b60036060604051908101604052803373ffffffffffffffffffffffffffffffffffffffff168152602001838152602001848152509080600181540180825580915050906001820390600052602060002090600302016000909192909190915060008201518160000160006101000a81548173ffffffffffffffffffffffffffffffffffffffff021916908373ffffffffffffffffffffffffffffffffffffffff1602179055506020820151816001015560408201518160020155505050600160009054906101000a900473ffffffffffffffffffffffffffffffffffffffff1673ffffffffffffffffffffffffffffffffffffffff166396455e13826040518263ffffffff167c010000000000000000000000000000000000000000000000000000000002815260040180828152602001915050600060405180830381600087803b158015610b9557600080fd5b505af1158015610ba9573d6000803e3d6000fd5b505050507f9b0548ddacd7b2f31852ad0ce5af1d780efea21568275e609c14741246bfaeea33604051808273ffffffffffffffffffffffffffffffffffffffff1673ffffffffffffffffffffffffffffffffffffffff16815260200191505060405180910390a150505600a165627a7a723058201d9b41170378a2f0a7f476300143b75aa632ff9d1e6310cfeb599e928178bae80029",
  "source": "pragma solidity ^0.4.24;\n\nimport \"./Ownable.sol\";\nimport \"./Water.sol\";\nimport \"./Stats.sol\";\nimport \"./Stats.sol\";\nimport \"./AUD.sol\";\n\ncontract OrderBook {\n    Water public _water;\n    Stats public _stats;\n    AUD public _aud;\n\n    struct Order {\n        address owner;\n        uint256 quantity;\n        uint256 price;\n    }\n\n    Order[] public _asks;\n    Order[] public _offers;\n\n    constructor (address statsContract, address waterContract, address audContract) public {\n        _stats = Stats(statsContract);\n        _water = Water(waterContract);\n        _aud = AUD(audContract);\n    }\n\n    function getStatsParent() public view returns (address) {\n        return _stats._parentContract();\n    }\n\n    function addSellLimitOrder(uint256 price, uint256 quantity) public {\n        require(quantity > 0 && price > 0, \"Values must be greater than 0\");\n        require(_water.balanceOf(msg.sender) >= quantity, \"Insufficient water allocation\");\n\n        _asks.push(Order(msg.sender, quantity, price));\n        _stats.updateVolumeAvailable(quantity);\n\n        emit OrderAdded(msg.sender);\n    }\n\n    function addBuyLimitOrder(uint256 price, uint256 quantity) public {\n        require(quantity > 0 && price > 0, \"Values must be greater than 0\");\n        require(_aud.balanceOf(msg.sender) >= quantity, \"Insufficient AUD allocation\");\n\n        _offers.push(Order(msg.sender, quantity, price));\n        //_stats.updateVolumeAvailable(quantity);\n\n        emit OrderAdded(msg.sender);\n    }\n\n    event OrderAdded(address _stats);\n}",
  "sourcePath": "/Users/matt/Code/waterledger/core/contracts/OrderBook.sol",
  "compiler": {
    "name": "solc",
    "version": "0.4.24+commit.e67f0147.Emscripten.clang"
  },
  "schemaVersion": "3.0.0-beta.0",
  "updatedAt": "2018-09-21T01:41:47.027Z"
}