{
  "contractName": "Stats",
  "abi": [
    {
      "constant": true,
      "inputs": [],
      "name": "_parentContract",
      "outputs": [
        {
          "name": "",
          "type": "address"
        }
      ],
      "payable": false,
      "stateMutability": "view",
      "type": "function",
      "signature": "0x027b753f"
    },
    {
      "constant": false,
      "inputs": [],
      "name": "renounceOwnership",
      "outputs": [],
      "payable": false,
      "stateMutability": "nonpayable",
      "type": "function",
      "signature": "0x715018a6"
    },
    {
      "constant": true,
      "inputs": [],
      "name": "_yesterdayAverageBid",
      "outputs": [
        {
          "name": "",
          "type": "uint256"
        }
      ],
      "payable": false,
      "stateMutability": "view",
      "type": "function",
      "signature": "0x8b46a38d"
    },
    {
      "constant": true,
      "inputs": [],
      "name": "owner",
      "outputs": [
        {
          "name": "",
          "type": "address"
        }
      ],
      "payable": false,
      "stateMutability": "view",
      "type": "function",
      "signature": "0x8da5cb5b"
    },
    {
      "constant": true,
      "inputs": [],
      "name": "isOwner",
      "outputs": [
        {
          "name": "",
          "type": "bool"
        }
      ],
      "payable": false,
      "stateMutability": "view",
      "type": "function",
      "signature": "0x8f32d59b"
    },
    {
      "constant": true,
      "inputs": [],
      "name": "_yesterdayMinBid",
      "outputs": [
        {
          "name": "",
          "type": "uint256"
        }
      ],
      "payable": false,
      "stateMutability": "view",
      "type": "function",
      "signature": "0xc01d3b92"
    },
    {
      "constant": true,
      "inputs": [],
      "name": "_volumeAvailable",
      "outputs": [
        {
          "name": "",
          "type": "uint256"
        }
      ],
      "payable": false,
      "stateMutability": "view",
      "type": "function",
      "signature": "0xcc77f71a"
    },
    {
      "constant": true,
      "inputs": [],
      "name": "_inTransitAmount",
      "outputs": [
        {
          "name": "",
          "type": "uint256"
        }
      ],
      "payable": false,
      "stateMutability": "view",
      "type": "function",
      "signature": "0xdb325d46"
    },
    {
      "constant": true,
      "inputs": [],
      "name": "_yesterdayMaxBid",
      "outputs": [
        {
          "name": "",
          "type": "uint256"
        }
      ],
      "payable": false,
      "stateMutability": "view",
      "type": "function",
      "signature": "0xea340d5c"
    },
    {
      "constant": false,
      "inputs": [
        {
          "name": "newOwner",
          "type": "address"
        }
      ],
      "name": "transferOwnership",
      "outputs": [],
      "payable": false,
      "stateMutability": "nonpayable",
      "type": "function",
      "signature": "0xf2fde38b"
    },
    {
      "inputs": [
        {
          "name": "volume",
          "type": "uint256"
        },
        {
          "name": "inTransit",
          "type": "uint256"
        },
        {
          "name": "avg",
          "type": "uint256"
        },
        {
          "name": "min",
          "type": "uint256"
        },
        {
          "name": "max",
          "type": "uint256"
        }
      ],
      "payable": false,
      "stateMutability": "nonpayable",
      "type": "constructor",
      "signature": "constructor"
    },
    {
      "anonymous": false,
      "inputs": [],
      "name": "StatsChanged",
      "type": "event",
      "signature": "0x850fbf45342febf8f5f9c73fafd2f5f25889cc67a0b40da065d971a77cbbdbc7"
    },
    {
      "anonymous": false,
      "inputs": [
        {
          "indexed": false,
          "name": "from",
          "type": "address"
        },
        {
          "indexed": false,
          "name": "parent",
          "type": "address"
        },
        {
          "indexed": false,
          "name": "found",
          "type": "bool"
        }
      ],
      "name": "WriterRequested",
      "type": "event",
      "signature": "0xe6750a3b3c4c8e5aa6ca7e1d9c2338c12c6d8de88d272f04c775b6ca6f7de670"
    },
    {
      "anonymous": false,
      "inputs": [
        {
          "indexed": true,
          "name": "previousOwner",
          "type": "address"
        }
      ],
      "name": "OwnershipRenounced",
      "type": "event",
      "signature": "0xf8df31144d9c2f0f6b59d69b8b98abd5459d07f2742c4df920b25aae33c64820"
    },
    {
      "anonymous": false,
      "inputs": [
        {
          "indexed": true,
          "name": "previousOwner",
          "type": "address"
        },
        {
          "indexed": true,
          "name": "newOwner",
          "type": "address"
        }
      ],
      "name": "OwnershipTransferred",
      "type": "event",
      "signature": "0x8be0079c531659141344cd1fd0a4f28419497f9722a3daafe3b4186f6b6457e0"
    },
    {
      "constant": false,
      "inputs": [
        {
          "name": "volume",
          "type": "uint256"
        }
      ],
      "name": "setVolumeAvailable",
      "outputs": [],
      "payable": false,
      "stateMutability": "nonpayable",
      "type": "function",
      "signature": "0xcb86d0a9"
    },
    {
      "constant": false,
      "inputs": [
        {
          "name": "volume",
          "type": "uint256"
        }
      ],
      "name": "updateVolumeAvailable",
      "outputs": [],
      "payable": false,
      "stateMutability": "nonpayable",
      "type": "function",
      "signature": "0x96455e13"
    },
    {
      "constant": false,
      "inputs": [
        {
          "name": "inTransit",
          "type": "uint256"
        }
      ],
      "name": "setInTransitAmount",
      "outputs": [],
      "payable": false,
      "stateMutability": "nonpayable",
      "type": "function",
      "signature": "0xdc1f2949"
    },
    {
      "constant": false,
      "inputs": [
        {
          "name": "volume",
          "type": "uint256"
        },
        {
          "name": "inTransit",
          "type": "uint256"
        },
        {
          "name": "avg",
          "type": "uint256"
        },
        {
          "name": "min",
          "type": "uint256"
        },
        {
          "name": "max",
          "type": "uint256"
        }
      ],
      "name": "setStats",
      "outputs": [],
      "payable": false,
      "stateMutability": "nonpayable",
      "type": "function",
      "signature": "0x1f556bea"
    },
    {
      "constant": true,
      "inputs": [],
      "name": "getAllStats",
      "outputs": [
        {
          "name": "volume",
          "type": "uint256"
        },
        {
          "name": "inTransit",
          "type": "uint256"
        },
        {
          "name": "avg",
          "type": "uint256"
        },
        {
          "name": "min",
          "type": "uint256"
        },
        {
          "name": "max",
          "type": "uint256"
        }
      ],
      "payable": false,
      "stateMutability": "view",
      "type": "function",
      "signature": "0xb593ff85"
    },
    {
      "constant": false,
      "inputs": [
        {
          "name": "who",
          "type": "address"
        }
      ],
      "name": "addWriter",
      "outputs": [],
      "payable": false,
      "stateMutability": "nonpayable",
      "type": "function",
      "signature": "0xda2824a8"
    },
    {
      "constant": false,
      "inputs": [
        {
          "name": "who",
          "type": "address"
        }
      ],
      "name": "denyWriter",
      "outputs": [],
      "payable": false,
      "stateMutability": "nonpayable",
      "type": "function",
      "signature": "0x59ebfd51"
    }
  ],
  "bytecode": "0x608060405234801561001057600080fd5b5060405160a08061136c8339810180604052810190808051906020019092919080519060200190929190805190602001909291908051906020019092919080519060200190929190505050336000806101000a81548173ffffffffffffffffffffffffffffffffffffffff021916908373ffffffffffffffffffffffffffffffffffffffff1602179055506001600760003373ffffffffffffffffffffffffffffffffffffffff1673ffffffffffffffffffffffffffffffffffffffff16815260200190815260200160002060006101000a81548160ff02191690831515021790555033600660006101000a81548173ffffffffffffffffffffffffffffffffffffffff021916908373ffffffffffffffffffffffffffffffffffffffff160217905550846001819055508360028190555082600381905550816004819055508060058190555050505050506112018061016b6000396000f3006080604052600436106100f1576000357c0100000000000000000000000000000000000000000000000000000000900463ffffffff168063027b753f146100f65780631f556bea1461014d57806359ebfd51146101a2578063715018a6146101e55780638b46a38d146101fc5780638da5cb5b146102275780638f32d59b1461027e57806396455e13146102ad578063b593ff85146102da578063c01d3b9214610321578063cb86d0a91461034c578063cc77f71a14610379578063da2824a8146103a4578063db325d46146103e7578063dc1f294914610412578063ea340d5c1461043f578063f2fde38b1461046a575b600080fd5b34801561010257600080fd5b5061010b6104ad565b604051808273ffffffffffffffffffffffffffffffffffffffff1673ffffffffffffffffffffffffffffffffffffffff16815260200191505060405180910390f35b34801561015957600080fd5b506101a060048036038101908080359060200190929190803590602001909291908035906020019092919080359060200190929190803590602001909291905050506104d3565b005b3480156101ae57600080fd5b506101e3600480360381019080803573ffffffffffffffffffffffffffffffffffffffff169060200190929190505050610632565b005b3480156101f157600080fd5b506101fa61072f565b005b34801561020857600080fd5b50610211610878565b6040518082815260200191505060405180910390f35b34801561023357600080fd5b5061023c61087e565b604051808273ffffffffffffffffffffffffffffffffffffffff1673ffffffffffffffffffffffffffffffffffffffff16815260200191505060405180910390f35b34801561028a57600080fd5b506102936108a7565b604051808215151515815260200191505060405180910390f35b3480156102b957600080fd5b506102d8600480360381019080803590602001909291905050506108fe565b005b3480156102e657600080fd5b506102ef610af5565b604051808681526020018581526020018481526020018381526020018281526020019550505050505060405180910390f35b34801561032d57600080fd5b50610336610b1d565b6040518082815260200191505060405180910390f35b34801561035857600080fd5b5061037760048036038101908080359060200190929190505050610b23565b005b34801561038557600080fd5b5061038e610d06565b6040518082815260200191505060405180910390f35b3480156103b057600080fd5b506103e5600480360381019080803573ffffffffffffffffffffffffffffffffffffffff169060200190929190505050610d0c565b005b3480156103f357600080fd5b506103fc610e09565b6040518082815260200191505060405180910390f35b34801561041e57600080fd5b5061043d60048036038101908080359060200190929190505050610e0f565b005b34801561044b57600080fd5b50610454610f7a565b6040518082815260200191505060405180910390f35b34801561047657600080fd5b506104ab600480360381019080803573ffffffffffffffffffffffffffffffffffffffff169060200190929190505050610f80565b005b600660009054906101000a900473ffffffffffffffffffffffffffffffffffffffff1681565b6040805190810160405280601d81526020017f4f6e6c7920777269746572732063616e206368616e676520737461747300000081525060011515600760003373ffffffffffffffffffffffffffffffffffffffff1673ffffffffffffffffffffffffffffffffffffffff16815260200190815260200160002060009054906101000a900460ff1615151481901515610606576040517f08c379a00000000000000000000000000000000000000000000000000000000081526004018080602001828103825283818151815260200191508051906020019080838360005b838110156105cb5780820151818401526020810190506105b0565b50505050905090810190601f1680156105f85780820380516001836020036101000a031916815260200191505b509250505060405180910390fd5b508560018190555084600281905550836003819055508260048190555081600581905550505050505050565b61063a6108a7565b15156106d4576040517f08c379a00000000000000000000000000000000000000000000000000000000081526004018080602001828103825260268152602001807f4f6e6c7920746865206f776e65722063616e20706572666f726d20746869732081526020017f616374696f6e000000000000000000000000000000000000000000000000000081525060400191505060405180910390fd5b6000600760008373ffffffffffffffffffffffffffffffffffffffff1673ffffffffffffffffffffffffffffffffffffffff16815260200190815260200160002060006101000a81548160ff02191690831515021790555050565b6107376108a7565b15156107d1576040517f08c379a00000000000000000000000000000000000000000000000000000000081526004018080602001828103825260268152602001807f4f6e6c7920746865206f776e65722063616e20706572666f726d20746869732081526020017f616374696f6e000000000000000000000000000000000000000000000000000081525060400191505060405180910390fd5b6000809054906101000a900473ffffffffffffffffffffffffffffffffffffffff1673ffffffffffffffffffffffffffffffffffffffff167ff8df31144d9c2f0f6b59d69b8b98abd5459d07f2742c4df920b25aae33c6482060405160405180910390a260008060006101000a81548173ffffffffffffffffffffffffffffffffffffffff021916908373ffffffffffffffffffffffffffffffffffffffff160217905550565b60035481565b60008060009054906101000a900473ffffffffffffffffffffffffffffffffffffffff16905090565b60008060009054906101000a900473ffffffffffffffffffffffffffffffffffffffff1673ffffffffffffffffffffffffffffffffffffffff163373ffffffffffffffffffffffffffffffffffffffff1614905090565b6040805190810160405280601b81526020017f4f6e6c7920777269746572732063616e2073657420766f6c756d65000000000081525060011515600760003373ffffffffffffffffffffffffffffffffffffffff1673ffffffffffffffffffffffffffffffffffffffff16815260200190815260200160002060009054906101000a900460ff1615151481901515610a31576040517f08c379a00000000000000000000000000000000000000000000000000000000081526004018080602001828103825283818151815260200191508051906020019080838360005b838110156109f65780820151818401526020810190506109db565b50505050905090810190601f168015610a235780820380516001836020036101000a031916815260200191505b509250505060405180910390fd5b50600082111515610aaa576040517f08c379a00000000000000000000000000000000000000000000000000000000081526004018080602001828103825260208152602001807f566f6c756d65206d7573742062652067726561746572207468616e207a65726f81525060200191505060405180910390fd5b610abf8260015461102e90919063ffffffff16565b6001819055507f850fbf45342febf8f5f9c73fafd2f5f25889cc67a0b40da065d971a77cbbdbc760405160405180910390a15050565b6000806000806000600154600254600354600454600554945094509450945094509091929394565b60045481565b6040805190810160405280601b81526020017f4f6e6c7920777269746572732063616e2073657420766f6c756d65000000000081525060011515600760003373ffffffffffffffffffffffffffffffffffffffff1673ffffffffffffffffffffffffffffffffffffffff16815260200190815260200160002060009054906101000a900460ff1615151481901515610c56576040517f08c379a00000000000000000000000000000000000000000000000000000000081526004018080602001828103825283818151815260200191508051906020019080838360005b83811015610c1b578082015181840152602081019050610c00565b50505050905090810190601f168015610c485780820380516001836020036101000a031916815260200191505b509250505060405180910390fd5b50600082111515610ccf576040517f08c379a00000000000000000000000000000000000000000000000000000000081526004018080602001828103825260208152602001807f566f6c756d65206d7573742062652067726561746572207468616e207a65726f81525060200191505060405180910390fd5b816001819055507f850fbf45342febf8f5f9c73fafd2f5f25889cc67a0b40da065d971a77cbbdbc760405160405180910390a15050565b60015481565b610d146108a7565b1515610dae576040517f08c379a00000000000000000000000000000000000000000000000000000000081526004018080602001828103825260268152602001807f4f6e6c7920746865206f776e65722063616e20706572666f726d20746869732081526020017f616374696f6e000000000000000000000000000000000000000000000000000081525060400191505060405180910390fd5b6001600760008373ffffffffffffffffffffffffffffffffffffffff1673ffffffffffffffffffffffffffffffffffffffff16815260200190815260200160002060006101000a81548160ff02191690831515021790555050565b60025481565b6040805190810160405280601d81526020017f4f6e6c7920777269746572732063616e206368616e676520737461747300000081525060011515600760003373ffffffffffffffffffffffffffffffffffffffff1673ffffffffffffffffffffffffffffffffffffffff16815260200190815260200160002060009054906101000a900460ff1615151481901515610f42576040517f08c379a00000000000000000000000000000000000000000000000000000000081526004018080602001828103825283818151815260200191508051906020019080838360005b83811015610f07578082015181840152602081019050610eec565b50505050905090810190601f168015610f345780820380516001836020036101000a031916815260200191505b509250505060405180910390fd5b50816002819055507f850fbf45342febf8f5f9c73fafd2f5f25889cc67a0b40da065d971a77cbbdbc760405160405180910390a15050565b60055481565b610f886108a7565b1515611022576040517f08c379a00000000000000000000000000000000000000000000000000000000081526004018080602001828103825260268152602001807f4f6e6c7920746865206f776e65722063616e20706572666f726d20746869732081526020017f616374696f6e000000000000000000000000000000000000000000000000000081525060400191505060405180910390fd5b61102b8161104c565b50565b600080828401905083811015151561104257fe5b8091505092915050565b600073ffffffffffffffffffffffffffffffffffffffff168173ffffffffffffffffffffffffffffffffffffffff1614151515611117576040517f08c379a00000000000000000000000000000000000000000000000000000000081526004018080602001828103825260278152602001807f596f752063616e6e6f74207472616e7366657220746f20746865207a65726f2081526020017f616464726573730000000000000000000000000000000000000000000000000081525060400191505060405180910390fd5b8073ffffffffffffffffffffffffffffffffffffffff166000809054906101000a900473ffffffffffffffffffffffffffffffffffffffff1673ffffffffffffffffffffffffffffffffffffffff167f8be0079c531659141344cd1fd0a4f28419497f9722a3daafe3b4186f6b6457e060405160405180910390a3806000806101000a81548173ffffffffffffffffffffffffffffffffffffffff021916908373ffffffffffffffffffffffffffffffffffffffff160217905550505600a165627a7a723058205bfd7e7db8eba14cac810ddf8d0d557e87de5fbfcec4e3426cd370e1f171fb150029",
  "source": "pragma solidity ^0.4.24;\n\nimport \"./Ownable.sol\";\nimport \"./SafeMath.sol\";\n\ncontract Stats is Ownable {\n\n    using SafeMath for uint;\n\n    uint256 public _volumeAvailable;\n    uint256 public _inTransitAmount;\n    uint256 public _yesterdayAverageBid;\n    uint256 public _yesterdayMinBid;\n    uint256 public _yesterdayMaxBid;\n\n    address public _parentContract;\n\n    mapping(address => bool) _allowedWriters;\n\n    constructor(uint256 volume, uint256 inTransit, uint256 avg, uint256 min, uint256 max) public {\n        _allowedWriters[msg.sender] = true;\n        _parentContract = msg.sender;\n        _volumeAvailable = volume;\n        _inTransitAmount = inTransit;\n        _yesterdayAverageBid = avg;\n        _yesterdayMinBid = min;\n        _yesterdayMaxBid = max;\n    }\n\n    function setVolumeAvailable(uint volume) public onlyWriters(\"Only writers can set volume\") {\n        require(volume > 0, \"Volume must be greater than zero\");\n        _volumeAvailable = volume;\n        emit StatsChanged();\n    }\n\n    function updateVolumeAvailable(uint volume) public onlyWriters(\"Only writers can set volume\") {\n        require(volume > 0, \"Volume must be greater than zero\");\n        _volumeAvailable = _volumeAvailable.add(volume);\n        emit StatsChanged();\n    }\n\n    function setInTransitAmount(uint inTransit) public onlyWriters(\"Only writers can change stats\") {\n        _inTransitAmount = inTransit;\n        emit StatsChanged();\n    }\n\n    function setStats(\n        uint256 volume,\n        uint256 inTransit,\n        uint256 avg,\n        uint256 min,\n        uint256 max\n    ) public onlyWriters(\"Only writers can change stats\") {\n        _volumeAvailable = volume;\n        _inTransitAmount = inTransit;\n        _yesterdayAverageBid = avg;\n        _yesterdayMinBid = min;\n        _yesterdayMaxBid = max;\n    }\n\n    function getAllStats() public view returns (\n        uint256 volume,\n        uint256 inTransit,\n        uint256 avg,\n        uint256 min,\n        uint256 max\n    ) {\n        return (_volumeAvailable, _inTransitAmount, _yesterdayAverageBid, _yesterdayMinBid, _yesterdayMaxBid);\n    }\n\n    function addWriter(address who) public onlyOwner {\n        _allowedWriters[who] = true;\n    }\n\n    function denyWriter(address who) public onlyOwner {\n        _allowedWriters[who] = false;\n    }\n\n    event StatsChanged();\n    event WriterRequested(address from, address parent, bool found);\n\n    modifier onlyWriters(string error) {\n        require(_allowedWriters[msg.sender] == true, error);\n        _;\n    }\n}",
  "sourcePath": "/Users/mattb/Code/waterledger/core/contracts/Stats.sol",
  "compiler": {
    "name": "solc",
    "version": "0.4.24+commit.e67f0147.Emscripten.clang"
  },
  "schemaVersion": "3.0.0-beta.0",
  "updatedAt": "2018-09-20T12:35:05.402Z"
}