{
  "contractName": "Stats",
  "abi": [
    {
      "constant": true,
      "inputs": [],
      "name": "yesterdayMaxBid",
      "outputs": [
        {
          "name": "",
          "type": "uint256"
        }
      ],
      "payable": false,
      "stateMutability": "view",
      "type": "function",
      "signature": "0x1915c99a"
    },
    {
      "constant": true,
      "inputs": [],
      "name": "inTransitAmount",
      "outputs": [
        {
          "name": "",
          "type": "uint256"
        }
      ],
      "payable": false,
      "stateMutability": "view",
      "type": "function",
      "signature": "0x21d35891"
    },
    {
      "constant": true,
      "inputs": [],
      "name": "yesterdayAverageBid",
      "outputs": [
        {
          "name": "",
          "type": "uint256"
        }
      ],
      "payable": false,
      "stateMutability": "view",
      "type": "function",
      "signature": "0x3bdd33f4"
    },
    {
      "constant": true,
      "inputs": [],
      "name": "yesterdayMinBid",
      "outputs": [
        {
          "name": "",
          "type": "uint256"
        }
      ],
      "payable": false,
      "stateMutability": "view",
      "type": "function",
      "signature": "0x6ec1ae8d"
    },
    {
      "constant": true,
      "inputs": [],
      "name": "owner",
      "outputs": [
        {
          "name": "",
          "type": "address"
        }
      ],
      "payable": false,
      "stateMutability": "view",
      "type": "function",
      "signature": "0x8da5cb5b"
    },
    {
      "constant": true,
      "inputs": [],
      "name": "volumeAvailable",
      "outputs": [
        {
          "name": "",
          "type": "uint256"
        }
      ],
      "payable": false,
      "stateMutability": "view",
      "type": "function",
      "signature": "0xfa866e38"
    },
    {
      "inputs": [
        {
          "name": "_volume",
          "type": "uint256"
        },
        {
          "name": "_inTransit",
          "type": "uint256"
        },
        {
          "name": "_avg",
          "type": "uint256"
        },
        {
          "name": "_min",
          "type": "uint256"
        },
        {
          "name": "_max",
          "type": "uint256"
        }
      ],
      "payable": false,
      "stateMutability": "nonpayable",
      "type": "constructor",
      "signature": "constructor"
    },
    {
      "anonymous": false,
      "inputs": [],
      "name": "StatsChanged",
      "type": "event",
      "signature": "0x850fbf45342febf8f5f9c73fafd2f5f25889cc67a0b40da065d971a77cbbdbc7"
    },
    {
      "constant": false,
      "inputs": [
        {
          "name": "_volume",
          "type": "uint256"
        }
      ],
      "name": "setVolumeAvailable",
      "outputs": [],
      "payable": false,
      "stateMutability": "nonpayable",
      "type": "function",
      "signature": "0xcb86d0a9"
    },
    {
      "constant": false,
      "inputs": [
        {
          "name": "_inTransit",
          "type": "uint256"
        }
      ],
      "name": "setInTransitAmount",
      "outputs": [],
      "payable": false,
      "stateMutability": "nonpayable",
      "type": "function",
      "signature": "0xdc1f2949"
    },
    {
      "constant": false,
      "inputs": [
        {
          "name": "_volume",
          "type": "uint256"
        },
        {
          "name": "_inTransit",
          "type": "uint256"
        },
        {
          "name": "_avg",
          "type": "uint256"
        },
        {
          "name": "_min",
          "type": "uint256"
        },
        {
          "name": "_max",
          "type": "uint256"
        }
      ],
      "name": "setStats",
      "outputs": [],
      "payable": false,
      "stateMutability": "nonpayable",
      "type": "function",
      "signature": "0x1f556bea"
    },
    {
      "constant": true,
      "inputs": [],
      "name": "getAllStats",
      "outputs": [
        {
          "name": "volume",
          "type": "uint256"
        },
        {
          "name": "inTransit",
          "type": "uint256"
        },
        {
          "name": "avg",
          "type": "uint256"
        },
        {
          "name": "min",
          "type": "uint256"
        },
        {
          "name": "max",
          "type": "uint256"
        }
      ],
      "payable": false,
      "stateMutability": "view",
      "type": "function",
      "signature": "0xb593ff85"
    }
  ],
  "bytecode": "0x608060405234801561001057600080fd5b5060405160a0806107908339810180604052810190808051906020019092919080519060200190929190805190602001909291908051906020019092919080519060200190929190505050336000806101000a81548173ffffffffffffffffffffffffffffffffffffffff021916908373ffffffffffffffffffffffffffffffffffffffff160217905550846001819055508360028190555082600381905550816004819055508060058190555050505050506106be806100d26000396000f3006080604052600436106100a4576000357c0100000000000000000000000000000000000000000000000000000000900463ffffffff1680631915c99a146100a95780631f556bea146100d457806321d35891146101295780633bdd33f4146101545780636ec1ae8d1461017f5780638da5cb5b146101aa578063b593ff8514610201578063cb86d0a914610248578063dc1f294914610275578063fa866e38146102a2575b600080fd5b3480156100b557600080fd5b506100be6102cd565b6040518082815260200191505060405180910390f35b3480156100e057600080fd5b5061012760048036038101908080359060200190929190803590602001909291908035906020019092919080359060200190929190803590602001909291905050506102d3565b005b34801561013557600080fd5b5061013e6103c1565b6040518082815260200191505060405180910390f35b34801561016057600080fd5b506101696103c7565b6040518082815260200191505060405180910390f35b34801561018b57600080fd5b506101946103cd565b6040518082815260200191505060405180910390f35b3480156101b657600080fd5b506101bf6103d3565b604051808273ffffffffffffffffffffffffffffffffffffffff1673ffffffffffffffffffffffffffffffffffffffff16815260200191505060405180910390f35b34801561020d57600080fd5b506102166103f8565b604051808681526020018581526020018481526020018381526020018281526020019550505050505060405180910390f35b34801561025457600080fd5b5061027360048036038101908080359060200190929190505050610420565b005b34801561028157600080fd5b506102a060048036038101908080359060200190929190505050610592565b005b3480156102ae57600080fd5b506102b761068c565b6040518082815260200191505060405180910390f35b60055481565b6000809054906101000a900473ffffffffffffffffffffffffffffffffffffffff1673ffffffffffffffffffffffffffffffffffffffff163373ffffffffffffffffffffffffffffffffffffffff16141515610397576040517f08c379a000000000000000000000000000000000000000000000000000000000815260040180806020018281038252601b8152602001807f4f6e6c79206f776e65722063616e206368616e6765207374617473000000000081525060200191505060405180910390fd5b84600181905550836002819055508260038190555081600481905550806005819055505050505050565b60025481565b60035481565b60045481565b6000809054906101000a900473ffffffffffffffffffffffffffffffffffffffff1681565b6000806000806000600154600254600354600454600554945094509450945094509091929394565b6000809054906101000a900473ffffffffffffffffffffffffffffffffffffffff1673ffffffffffffffffffffffffffffffffffffffff163373ffffffffffffffffffffffffffffffffffffffff161415156104e4576040517f08c379a00000000000000000000000000000000000000000000000000000000081526004018080602001828103825260198152602001807f4f6e6c79206f776e65722063616e2073657420766f6c756d650000000000000081525060200191505060405180910390fd5b60008111151561055c576040517f08c379a00000000000000000000000000000000000000000000000000000000081526004018080602001828103825260208152602001807f566f6c756d65206d7573742062652067726561746572207468616e207a65726f81525060200191505060405180910390fd5b806001819055507f850fbf45342febf8f5f9c73fafd2f5f25889cc67a0b40da065d971a77cbbdbc760405160405180910390a150565b6000809054906101000a900473ffffffffffffffffffffffffffffffffffffffff1673ffffffffffffffffffffffffffffffffffffffff163373ffffffffffffffffffffffffffffffffffffffff16141515610656576040517f08c379a000000000000000000000000000000000000000000000000000000000815260040180806020018281038252601b8152602001807f4f6e6c79206f776e65722063616e206368616e6765207374617473000000000081525060200191505060405180910390fd5b806002819055507f850fbf45342febf8f5f9c73fafd2f5f25889cc67a0b40da065d971a77cbbdbc760405160405180910390a150565b600154815600a165627a7a7230582034fc7a9fc7617326d7aeb24411f74b9c8c42e64102fd4891af44fdb17da9b8c50029",
  "source": "pragma solidity ^0.4.24;\n\ncontract Stats {\n\n    address public owner;\n    uint256 public volumeAvailable;\n    uint256 public inTransitAmount;\n    uint256 public yesterdayAverageBid;\n    uint256 public yesterdayMinBid;\n    uint256 public yesterdayMaxBid;\n\n    event StatsChanged();\n\n    constructor(uint256 _volume, uint256 _inTransit, uint256 _avg, uint256 _min, uint256 _max) public {\n        owner = msg.sender;\n        volumeAvailable = _volume;\n        inTransitAmount = _inTransit;\n        yesterdayAverageBid = _avg;\n        yesterdayMinBid = _min;\n        yesterdayMaxBid = _max;\n    }\n\n    function setVolumeAvailable(uint _volume) public {\n        require(msg.sender == owner, \"Only owner can set volume\");\n        require(_volume > 0, \"Volume must be greater than zero\");\n        volumeAvailable = _volume;\n        emit StatsChanged();\n    }\n\n    function setInTransitAmount(uint _inTransit) public {\n        require(msg.sender == owner, \"Only owner can change stats\");\n        inTransitAmount = _inTransit;\n        emit StatsChanged();\n    }\n\n    function setStats(\n        uint256 _volume, \n        uint256 _inTransit, \n        uint256 _avg, \n        uint256 _min, \n        uint256 _max\n    ) public {\n        require(msg.sender == owner, \"Only owner can change stats\");\n        volumeAvailable = _volume;\n        inTransitAmount = _inTransit;\n        yesterdayAverageBid = _avg;\n        yesterdayMinBid = _min;\n        yesterdayMaxBid = _max;\n    }\n\n    function getAllStats() public view returns (\n        uint256 volume, \n        uint256 inTransit, \n        uint256 avg, \n        uint256 min, \n        uint256 max\n    ) {\n        return (volumeAvailable, inTransitAmount, yesterdayAverageBid, yesterdayMinBid, yesterdayMaxBid);\n    }\n}",
  "sourcePath": "/Users/matt/Code/waterledger/core/contracts/Stats.sol",
  "compiler": {
    "name": "solc",
    "version": "0.4.24+commit.e67f0147.Emscripten.clang"
  },
  "schemaVersion": "3.0.0-beta.0",
  "updatedAt": "2018-09-18T06:04:53.064Z"
}