{
  "contractName": "Staties",
  "abi": [
    {
      "constant": true,
      "inputs": [],
      "name": "_parentContract",
      "outputs": [
        {
          "name": "",
          "type": "address"
        }
      ],
      "payable": false,
      "stateMutability": "view",
      "type": "function"
    },
    {
      "constant": true,
      "inputs": [],
      "name": "_yesterdayAverageBid",
      "outputs": [
        {
          "name": "",
          "type": "uint256"
        }
      ],
      "payable": false,
      "stateMutability": "view",
      "type": "function"
    },
    {
      "constant": true,
      "inputs": [],
      "name": "_yesterdayMinBid",
      "outputs": [
        {
          "name": "",
          "type": "uint256"
        }
      ],
      "payable": false,
      "stateMutability": "view",
      "type": "function"
    },
    {
      "constant": true,
      "inputs": [],
      "name": "_volumeAvailable",
      "outputs": [
        {
          "name": "",
          "type": "uint256"
        }
      ],
      "payable": false,
      "stateMutability": "view",
      "type": "function"
    },
    {
      "constant": true,
      "inputs": [],
      "name": "_inTransitAmount",
      "outputs": [
        {
          "name": "",
          "type": "uint256"
        }
      ],
      "payable": false,
      "stateMutability": "view",
      "type": "function"
    },
    {
      "constant": true,
      "inputs": [],
      "name": "_yesterdayMaxBid",
      "outputs": [
        {
          "name": "",
          "type": "uint256"
        }
      ],
      "payable": false,
      "stateMutability": "view",
      "type": "function"
    }
  ],
  "bytecode": "0x608060405234801561001057600080fd5b5061021b806100206000396000f300608060405260043610610078576000357c0100000000000000000000000000000000000000000000000000000000900463ffffffff168063027b753f1461007d5780638b46a38d146100d4578063c01d3b92146100ff578063cc77f71a1461012a578063db325d4614610155578063ea340d5c14610180575b600080fd5b34801561008957600080fd5b506100926101ab565b604051808273ffffffffffffffffffffffffffffffffffffffff1673ffffffffffffffffffffffffffffffffffffffff16815260200191505060405180910390f35b3480156100e057600080fd5b506100e96101d1565b6040518082815260200191505060405180910390f35b34801561010b57600080fd5b506101146101d7565b6040518082815260200191505060405180910390f35b34801561013657600080fd5b5061013f6101dd565b6040518082815260200191505060405180910390f35b34801561016157600080fd5b5061016a6101e3565b6040518082815260200191505060405180910390f35b34801561018c57600080fd5b506101956101e9565b6040518082815260200191505060405180910390f35b600560009054906101000a900473ffffffffffffffffffffffffffffffffffffffff1681565b60025481565b60035481565b60005481565b60015481565b600454815600a165627a7a72305820cf4457fe91032822fb0f802cf2596924df2ed7d00c218a7bf6321e2ca52ede3c0029",
  "source": "pragma solidity ^0.4.24;\n\nimport \"./Ownable.sol\";\nimport \"./SafeMath.sol\";\n\ncontract Staties {\n\n    using SafeMath for uint;\n\n    uint256 public _volumeAvailable;\n    uint256 public _inTransitAmount;\n    uint256 public _yesterdayAverageBid;\n    uint256 public _yesterdayMinBid;\n    uint256 public _yesterdayMaxBid;\n\n    address public _parentContract;\n\n\n}",
  "sourcePath": "/Users/mattb/Code/waterledger/core/contracts/Staties.sol",
  "compiler": {
    "name": "solc",
    "version": "0.4.24+commit.e67f0147.Emscripten.clang"
  },
  "schemaVersion": "3.0.0-beta.0",
  "updatedAt": "2018-09-20T12:35:02.765Z"
}