{
  "contractName": "Transfers",
  "abi": [
    {
      "constant": true,
      "inputs": [
        {
          "name": "",
          "type": "uint256"
        }
      ],
      "name": "transfers",
      "outputs": [
        {
          "name": "owner",
          "type": "address"
        },
        {
          "name": "from",
          "type": "bytes32"
        },
        {
          "name": "to",
          "type": "bytes32"
        },
        {
          "name": "location",
          "type": "bytes32"
        },
        {
          "name": "volume",
          "type": "uint256"
        },
        {
          "name": "price",
          "type": "uint256"
        },
        {
          "name": "time",
          "type": "uint256"
        }
      ],
      "payable": false,
      "stateMutability": "view",
      "type": "function",
      "signature": "0x9377d711"
    },
    {
      "constant": true,
      "inputs": [
        {
          "name": "",
          "type": "bytes32"
        }
      ],
      "name": "transferMapping",
      "outputs": [
        {
          "name": "owner",
          "type": "address"
        },
        {
          "name": "from",
          "type": "bytes32"
        },
        {
          "name": "to",
          "type": "bytes32"
        },
        {
          "name": "location",
          "type": "bytes32"
        },
        {
          "name": "volume",
          "type": "uint256"
        },
        {
          "name": "price",
          "type": "uint256"
        },
        {
          "name": "time",
          "type": "uint256"
        }
      ],
      "payable": false,
      "stateMutability": "view",
      "type": "function",
      "signature": "0xda8d1548"
    },
    {
      "constant": false,
      "inputs": [
        {
          "name": "_from",
          "type": "bytes32"
        },
        {
          "name": "_to",
          "type": "bytes32"
        },
        {
          "name": "_location",
          "type": "bytes32"
        },
        {
          "name": "_volume",
          "type": "uint256"
        },
        {
          "name": "_price",
          "type": "uint256"
        },
        {
          "name": "_time",
          "type": "uint256"
        }
      ],
      "name": "addTransfer",
      "outputs": [],
      "payable": false,
      "stateMutability": "nonpayable",
      "type": "function",
      "signature": "0x1cb1c8f1"
    },
    {
      "constant": true,
      "inputs": [],
      "name": "getTransfersLength",
      "outputs": [
        {
          "name": "",
          "type": "uint256"
        }
      ],
      "payable": false,
      "stateMutability": "view",
      "type": "function",
      "signature": "0xa4700cea"
    },
    {
      "constant": true,
      "inputs": [
        {
          "name": "_numberOfRecords",
          "type": "uint8"
        }
      ],
      "name": "getRecentTransfers",
      "outputs": [
        {
          "name": "",
          "type": "bytes32[]"
        },
        {
          "name": "",
          "type": "bytes32[]"
        },
        {
          "name": "",
          "type": "bytes32[]"
        },
        {
          "name": "",
          "type": "uint256[]"
        },
        {
          "name": "",
          "type": "uint256[]"
        },
        {
          "name": "",
          "type": "uint256[]"
        }
      ],
      "payable": false,
      "stateMutability": "view",
      "type": "function",
      "signature": "0xe75d3dda"
    }
  ],
  "bytecode": "0x608060405234801561001057600080fd5b506109b1806100206000396000f30060806040526004361061006d576000357c0100000000000000000000000000000000000000000000000000000000900463ffffffff1680631cb1c8f1146100725780639377d711146100dd578063a4700cea1461018c578063da8d1548146101b7578063e75d3dda1461026a575b600080fd5b34801561007e57600080fd5b506100db600480360381019080803560001916906020019092919080356000191690602001909291908035600019169060200190929190803590602001909291908035906020019092919080359060200190929190505050610457565b005b3480156100e957600080fd5b506101086004803603810190808035906020019092919050505061057a565b604051808873ffffffffffffffffffffffffffffffffffffffff1673ffffffffffffffffffffffffffffffffffffffff16815260200187600019166000191681526020018660001916600019168152602001856000191660001916815260200184815260200183815260200182815260200197505050505050505060405180910390f35b34801561019857600080fd5b506101a16105eb565b6040518082815260200191505060405180910390f35b3480156101c357600080fd5b506101e660048036038101908080356000191690602001909291905050506105f7565b604051808873ffffffffffffffffffffffffffffffffffffffff1673ffffffffffffffffffffffffffffffffffffffff16815260200187600019166000191681526020018660001916600019168152602001856000191660001916815260200184815260200183815260200182815260200197505050505050505060405180910390f35b34801561027657600080fd5b50610298600480360381019080803560ff169060200190929190505050610659565b6040518080602001806020018060200180602001806020018060200187810387528d818151815260200191508051906020019060200280838360005b838110156102ef5780820151818401526020810190506102d4565b5050505090500187810386528c818151815260200191508051906020019060200280838360005b83811015610331578082015181840152602081019050610316565b5050505090500187810385528b818151815260200191508051906020019060200280838360005b83811015610373578082015181840152602081019050610358565b5050505090500187810384528a818151815260200191508051906020019060200280838360005b838110156103b557808201518184015260208101905061039a565b50505050905001878103835289818151815260200191508051906020019060200280838360005b838110156103f75780820151818401526020810190506103dc565b50505050905001878103825288818151815260200191508051906020019060200280838360005b8381101561043957808201518184015260208101905061041e565b505050509050019c5050505050505050505050505060405180910390f35b600060e0604051908101604052803373ffffffffffffffffffffffffffffffffffffffff168152602001886000191681526020018760001916815260200186600019168152602001858152602001848152602001838152509080600181540180825580915050906001820390600052602060002090600702016000909192909190915060008201518160000160006101000a81548173ffffffffffffffffffffffffffffffffffffffff021916908373ffffffffffffffffffffffffffffffffffffffff1602179055506020820151816001019060001916905560408201518160020190600019169055606082015181600301906000191690556080820151816004015560a0820151816005015560c08201518160060155505050505050505050565b60008181548110151561058957fe5b90600052602060002090600702016000915090508060000160009054906101000a900473ffffffffffffffffffffffffffffffffffffffff16908060010154908060020154908060030154908060040154908060050154908060060154905087565b60008080549050905090565b60016020528060005260406000206000915090508060000160009054906101000a900473ffffffffffffffffffffffffffffffffffffffff16908060010154908060020154908060030154908060040154908060050154908060060154905087565b6060806060806060806060806060806060806000808e60ff166040519080825280602002602001820160405280156106a05781602001602082028038833980820191505090505b5097508e60ff166040519080825280602002602001820160405280156106d55781602001602082028038833980820191505090505b5096508e60ff1660405190808252806020026020018201604052801561070a5781602001602082028038833980820191505090505b5095508e60ff1660405190808252806020026020018201604052801561073f5781602001602082028038833980820191505090505b5094508e60ff166040519080825280602002602001820160405280156107745781602001602082028038833980820191505090505b5093508e60ff166040519080825280602002602001820160405280156107a95781602001602082028038833980820191505090505b509250600091505b8e60ff1682101561096257600182600080549050030390506000818154811015156107d857fe5b90600052602060002090600702016001015488838151811015156107f857fe5b90602001906020020190600019169081600019168152505060008181548110151561081f57fe5b906000526020600020906007020160020154878381518110151561083f57fe5b90602001906020020190600019169081600019168152505060008181548110151561086657fe5b906000526020600020906007020160030154868381518110151561088657fe5b9060200190602002019060001916908160001916815250506000818154811015156108ad57fe5b90600052602060002090600702016004015485838151811015156108cd57fe5b90602001906020020181815250506000818154811015156108ea57fe5b906000526020600020906007020160050154848381518110151561090a57fe5b906020019060200201818152505060008181548110151561092757fe5b906000526020600020906007020160060154838381518110151561094757fe5b906020019060200201818152505081806001019250506107b1565b8787878787879d509d509d509d509d509d505050505050505050919395509193955600a165627a7a72305820f07176332d2e63348fdd5304f85083ed1f0867484c18580c1012f7248df3e7160029",
  "source": "pragma solidity ^0.4.24;\n\ncontract Transfers {\n\n    struct Transfer {\n        address owner;\n        bytes32 from;\n        bytes32 to;\n        bytes32 location;\n        uint256 volume;\n        uint256 price;\n        uint256 time;\n    }\n\n    Transfer[] public transfers;\n\n    mapping(bytes32 => Transfer) public transferMapping;\n\n    function addTransfer(bytes32 _from, bytes32 _to, bytes32 _location, uint256 _volume, uint256 _price, uint256 _time) public {\n        transfers.push(Transfer(msg.sender, _from, _to, _location, _volume, _price, _time));\n    }\n\n    function getTransfersLength() public view returns (uint256) {\n        return transfers.length;\n    }\n\n\n    function getRecentTransfers(uint8 _numberOfRecords) public view returns (\n        bytes32[],\n        bytes32[], \n        bytes32[], \n        uint256[], \n        uint256[], \n        uint256[]\n    ) {\n        \n        bytes32[] memory froms = new bytes32[](_numberOfRecords);\n        bytes32[] memory tos = new bytes32[](_numberOfRecords);\n        bytes32[] memory locations = new bytes32[](_numberOfRecords);\n        uint256[] memory volumes = new uint256[](_numberOfRecords);\n        uint256[] memory prices = new uint256[](_numberOfRecords);\n        uint256[] memory times = new uint256[](_numberOfRecords);\n\n        for(uint i = 0; i < _numberOfRecords; i++) {\n            uint256 currentIndex = (transfers.length - i) - 1;\n            froms[i] = transfers[currentIndex].from;\n            tos[i] = transfers[currentIndex].to;\n            locations[i] = transfers[currentIndex].location;\n            volumes[i] = transfers[currentIndex].volume;\n            prices[i] = transfers[currentIndex].price;\n            times[i] = transfers[currentIndex].time;\n        }\n\n        return (froms, tos, locations, volumes, prices, times);\n    }\n\n}",
  "sourcePath": "/Users/mattb/Code/waterledger/core/contracts/Transfers.sol",
  "compiler": {
    "name": "solc",
    "version": "0.4.24+commit.e67f0147.Emscripten.clang"
  },
  "schemaVersion": "3.0.0-beta.0",
  "updatedAt": "2018-09-20T12:35:05.404Z"
}