{
  "contractName": "Water",
  "abi": [
    {
      "constant": true,
      "inputs": [],
      "name": "name",
      "outputs": [
        {
          "name": "",
          "type": "string"
        }
      ],
      "payable": false,
      "stateMutability": "view",
      "type": "function",
      "signature": "0x06fdde03"
    },
    {
      "constant": true,
      "inputs": [],
      "name": "totalSupply",
      "outputs": [
        {
          "name": "",
          "type": "uint256"
        }
      ],
      "payable": false,
      "stateMutability": "view",
      "type": "function",
      "signature": "0x18160ddd"
    },
    {
      "constant": true,
      "inputs": [],
      "name": "decimals",
      "outputs": [
        {
          "name": "",
          "type": "uint8"
        }
      ],
      "payable": false,
      "stateMutability": "view",
      "type": "function",
      "signature": "0x313ce567"
    },
    {
      "constant": true,
      "inputs": [],
      "name": "owner",
      "outputs": [
        {
          "name": "",
          "type": "address"
        }
      ],
      "payable": false,
      "stateMutability": "view",
      "type": "function",
      "signature": "0x8da5cb5b"
    },
    {
      "constant": true,
      "inputs": [],
      "name": "symbol",
      "outputs": [
        {
          "name": "",
          "type": "string"
        }
      ],
      "payable": false,
      "stateMutability": "view",
      "type": "function",
      "signature": "0x95d89b41"
    },
    {
      "inputs": [],
      "payable": false,
      "stateMutability": "nonpayable",
      "type": "constructor",
      "signature": "constructor"
    },
    {
      "anonymous": false,
      "inputs": [
        {
          "indexed": true,
          "name": "owner",
          "type": "address"
        },
        {
          "indexed": true,
          "name": "spender",
          "type": "address"
        },
        {
          "indexed": false,
          "name": "value",
          "type": "uint256"
        }
      ],
      "name": "Approval",
      "type": "event",
      "signature": "0x8c5be1e5ebec7d5bd14f71427d1e84f3dd0314c0f7b2291e5b200ac8c7c3b925"
    },
    {
      "anonymous": false,
      "inputs": [
        {
          "indexed": true,
          "name": "from",
          "type": "address"
        },
        {
          "indexed": true,
          "name": "to",
          "type": "address"
        },
        {
          "indexed": false,
          "name": "value",
          "type": "uint256"
        }
      ],
      "name": "Transfer",
      "type": "event",
      "signature": "0xddf252ad1be2c89b69c2b068fc378daa952ba7f163c4a11628f55a4df523b3ef"
    },
    {
      "anonymous": false,
      "inputs": [
        {
          "indexed": false,
          "name": "value",
          "type": "uint256"
        }
      ],
      "name": "Minted",
      "type": "event",
      "signature": "0x176b02bb2d12439ff7a20b59f402cca16c76f50508b13ef3166a600eb719354a"
    },
    {
      "anonymous": false,
      "inputs": [
        {
          "indexed": false,
          "name": "value",
          "type": "uint256"
        }
      ],
      "name": "Burned",
      "type": "event",
      "signature": "0xd83c63197e8e676d80ab0122beba9a9d20f3828839e9a1d6fe81d242e9cd7e6e"
    },
    {
      "constant": true,
      "inputs": [
        {
          "name": "who",
          "type": "address"
        }
      ],
      "name": "balanceOf",
      "outputs": [
        {
          "name": "balance",
          "type": "uint256"
        }
      ],
      "payable": false,
      "stateMutability": "view",
      "type": "function",
      "signature": "0x70a08231"
    },
    {
      "constant": false,
      "inputs": [
        {
          "name": "to",
          "type": "address"
        },
        {
          "name": "value",
          "type": "uint256"
        }
      ],
      "name": "transfer",
      "outputs": [
        {
          "name": "",
          "type": "bool"
        }
      ],
      "payable": false,
      "stateMutability": "nonpayable",
      "type": "function",
      "signature": "0xa9059cbb"
    },
    {
      "constant": true,
      "inputs": [
        {
          "name": "tokenOwner",
          "type": "address"
        },
        {
          "name": "spender",
          "type": "address"
        }
      ],
      "name": "allowance",
      "outputs": [
        {
          "name": "remaining",
          "type": "uint256"
        }
      ],
      "payable": false,
      "stateMutability": "view",
      "type": "function",
      "signature": "0xdd62ed3e"
    },
    {
      "constant": false,
      "inputs": [
        {
          "name": "from",
          "type": "address"
        },
        {
          "name": "to",
          "type": "address"
        },
        {
          "name": "value",
          "type": "uint256"
        }
      ],
      "name": "transferFrom",
      "outputs": [
        {
          "name": "success",
          "type": "bool"
        }
      ],
      "payable": false,
      "stateMutability": "nonpayable",
      "type": "function",
      "signature": "0x23b872dd"
    },
    {
      "constant": false,
      "inputs": [
        {
          "name": "spender",
          "type": "address"
        },
        {
          "name": "value",
          "type": "uint256"
        }
      ],
      "name": "approve",
      "outputs": [
        {
          "name": "",
          "type": "bool"
        }
      ],
      "payable": false,
      "stateMutability": "nonpayable",
      "type": "function",
      "signature": "0x095ea7b3"
    },
    {
      "constant": false,
      "inputs": [
        {
          "name": "value",
          "type": "uint256"
        }
      ],
      "name": "mint",
      "outputs": [
        {
          "name": "",
          "type": "bool"
        }
      ],
      "payable": false,
      "stateMutability": "nonpayable",
      "type": "function",
      "signature": "0xa0712d68"
    },
    {
      "constant": false,
      "inputs": [
        {
          "name": "value",
          "type": "uint256"
        }
      ],
      "name": "burn",
      "outputs": [
        {
          "name": "",
          "type": "bool"
        }
      ],
      "payable": false,
      "stateMutability": "nonpayable",
      "type": "function",
      "signature": "0x42966c68"
    }
  ],
  "bytecode": "0x60806040526040805190810160405280601281526020017f5761746572204c65646765722057617465720000000000000000000000000000815250600190805190602001906200005192919062000110565b506040805190810160405280600381526020017f434c570000000000000000000000000000000000000000000000000000000000815250600290805190602001906200009f92919062000110565b50600c600360006101000a81548160ff021916908360ff160217905550348015620000c957600080fd5b50336000806101000a81548173ffffffffffffffffffffffffffffffffffffffff021916908373ffffffffffffffffffffffffffffffffffffffff160217905550620001bf565b828054600181600116156101000203166002900490600052602060002090601f016020900481019282601f106200015357805160ff191683800117855562000184565b8280016001018555821562000184579182015b828111156200018357825182559160200191906001019062000166565b5b50905062000193919062000197565b5090565b620001bc91905b80821115620001b85760008160009055506001016200019e565b5090565b90565b6115ee80620001cf6000396000f3006080604052600436106100ba576000357c0100000000000000000000000000000000000000000000000000000000900463ffffffff16806306fdde03146100bf578063095ea7b31461014f57806318160ddd146101b457806323b872dd146101df578063313ce5671461026457806342966c681461029557806370a08231146102da5780638da5cb5b1461033157806395d89b4114610388578063a0712d6814610418578063a9059cbb1461045d578063dd62ed3e146104c2575b600080fd5b3480156100cb57600080fd5b506100d4610539565b6040518080602001828103825283818151815260200191508051906020019080838360005b838110156101145780820151818401526020810190506100f9565b50505050905090810190601f1680156101415780820380516001836020036101000a031916815260200191505b509250505060405180910390f35b34801561015b57600080fd5b5061019a600480360381019080803573ffffffffffffffffffffffffffffffffffffffff169060200190929190803590602001909291905050506105d7565b604051808215151515815260200191505060405180910390f35b3480156101c057600080fd5b506101c961075e565b6040518082815260200191505060405180910390f35b3480156101eb57600080fd5b5061024a600480360381019080803573ffffffffffffffffffffffffffffffffffffffff169060200190929190803573ffffffffffffffffffffffffffffffffffffffff16906020019092919080359060200190929190505050610764565b604051808215151515815260200191505060405180910390f35b34801561027057600080fd5b50610279610b73565b604051808260ff1660ff16815260200191505060405180910390f35b3480156102a157600080fd5b506102c060048036038101908080359060200190929190505050610b86565b604051808215151515815260200191505060405180910390f35b3480156102e657600080fd5b5061031b600480360381019080803573ffffffffffffffffffffffffffffffffffffffff169060200190929190505050610e98565b6040518082815260200191505060405180910390f35b34801561033d57600080fd5b50610346610ee1565b604051808273ffffffffffffffffffffffffffffffffffffffff1673ffffffffffffffffffffffffffffffffffffffff16815260200191505060405180910390f35b34801561039457600080fd5b5061039d610f06565b6040518080602001828103825283818151815260200191508051906020019080838360005b838110156103dd5780820151818401526020810190506103c2565b50505050905090810190601f16801561040a5780820380516001836020036101000a031916815260200191505b509250505060405180910390f35b34801561042457600080fd5b5061044360048036038101908080359060200190929190505050610fa4565b604051808215151515815260200191505060405180910390f35b34801561046957600080fd5b506104a8600480360381019080803573ffffffffffffffffffffffffffffffffffffffff1690602001909291908035906020019092919050505061123c565b604051808215151515815260200191505060405180910390f35b3480156104ce57600080fd5b50610523600480360381019080803573ffffffffffffffffffffffffffffffffffffffff169060200190929190803573ffffffffffffffffffffffffffffffffffffffff169060200190929190505050611504565b6040518082815260200191505060405180910390f35b60018054600181600116156101000203166002900480601f0160208091040260200160405190810160405280929190818152602001828054600181600116156101000203166002900480156105cf5780601f106105a4576101008083540402835291602001916105cf565b820191906000526020600020905b8154815290600101906020018083116105b257829003601f168201915b505050505081565b600080600660003373ffffffffffffffffffffffffffffffffffffffff1673ffffffffffffffffffffffffffffffffffffffff16815260200190815260200160002060008573ffffffffffffffffffffffffffffffffffffffff1673ffffffffffffffffffffffffffffffffffffffff1681526020019081526020016000205414806106635750600082145b151561066e57600080fd5b81600660003373ffffffffffffffffffffffffffffffffffffffff1673ffffffffffffffffffffffffffffffffffffffff16815260200190815260200160002060008573ffffffffffffffffffffffffffffffffffffffff1673ffffffffffffffffffffffffffffffffffffffff168152602001908152602001600020819055508273ffffffffffffffffffffffffffffffffffffffff163373ffffffffffffffffffffffffffffffffffffffff167f8c5be1e5ebec7d5bd14f71427d1e84f3dd0314c0f7b2291e5b200ac8c7c3b925846040518082815260200191505060405180910390a36001905092915050565b60045481565b6000808373ffffffffffffffffffffffffffffffffffffffff16141515156107f4576040517f08c379a00000000000000000000000000000000000000000000000000000000081526004018080602001828103825260168152602001807f43616e6e6f742062652061646472657373207a65726f0000000000000000000081525060200191505060405180910390fd5b81600560008673ffffffffffffffffffffffffffffffffffffffff1673ffffffffffffffffffffffffffffffffffffffff16815260200190815260200160002054101580156108bf575081600660008673ffffffffffffffffffffffffffffffffffffffff1673ffffffffffffffffffffffffffffffffffffffff16815260200190815260200160002060003373ffffffffffffffffffffffffffffffffffffffff1673ffffffffffffffffffffffffffffffffffffffff1681526020019081526020016000205410155b15156108ca57600080fd5b61091c82600560008773ffffffffffffffffffffffffffffffffffffffff1673ffffffffffffffffffffffffffffffffffffffff1681526020019081526020016000205461158b90919063ffffffff16565b600560008673ffffffffffffffffffffffffffffffffffffffff1673ffffffffffffffffffffffffffffffffffffffff168152602001908152602001600020819055506109ee82600660008773ffffffffffffffffffffffffffffffffffffffff1673ffffffffffffffffffffffffffffffffffffffff16815260200190815260200160002060003373ffffffffffffffffffffffffffffffffffffffff1673ffffffffffffffffffffffffffffffffffffffff1681526020019081526020016000205461158b90919063ffffffff16565b600660008673ffffffffffffffffffffffffffffffffffffffff1673ffffffffffffffffffffffffffffffffffffffff16815260200190815260200160002060003373ffffffffffffffffffffffffffffffffffffffff1673ffffffffffffffffffffffffffffffffffffffff16815260200190815260200160002081905550610ac082600560008673ffffffffffffffffffffffffffffffffffffffff1673ffffffffffffffffffffffffffffffffffffffff168152602001908152602001600020546115a490919063ffffffff16565b600560008573ffffffffffffffffffffffffffffffffffffffff1673ffffffffffffffffffffffffffffffffffffffff168152602001908152602001600020819055508273ffffffffffffffffffffffffffffffffffffffff168473ffffffffffffffffffffffffffffffffffffffff167fddf252ad1be2c89b69c2b068fc378daa952ba7f163c4a11628f55a4df523b3ef846040518082815260200191505060405180910390a3600190509392505050565b600360009054906101000a900460ff1681565b60008060009054906101000a900473ffffffffffffffffffffffffffffffffffffffff1673ffffffffffffffffffffffffffffffffffffffff163373ffffffffffffffffffffffffffffffffffffffff16141515610c72576040517f08c379a00000000000000000000000000000000000000000000000000000000081526004018080602001828103825260348152602001807f4f6e6c7920746865206f776e6572206f66207468697320636f6e74726163742081526020017f6d61792074616b65207468617420616374696f6e00000000000000000000000081525060400191505060405180910390fd5b600082111515610cea576040517f08c379a00000000000000000000000000000000000000000000000000000000081526004018080602001828103825260208152602001807f416d6f756e74206d7573742062652067726561746572207468616e207a65726f81525060200191505060405180910390fd5b8160045410151515610d64576040517f08c379a000000000000000000000000000000000000000000000000000000000815260040180806020018281038252601e8152602001807f43616e6e6f74206275726e206d6f7265207468616e20796f752068617665000081525060200191505060405180910390fd5b610dd782600560008060009054906101000a900473ffffffffffffffffffffffffffffffffffffffff1673ffffffffffffffffffffffffffffffffffffffff1673ffffffffffffffffffffffffffffffffffffffff1681526020019081526020016000205461158b90919063ffffffff16565b600560008060009054906101000a900473ffffffffffffffffffffffffffffffffffffffff1673ffffffffffffffffffffffffffffffffffffffff1673ffffffffffffffffffffffffffffffffffffffff16815260200190815260200160002081905550610e508260045461158b90919063ffffffff16565b6004819055507fd83c63197e8e676d80ab0122beba9a9d20f3828839e9a1d6fe81d242e9cd7e6e6004546040518082815260200191505060405180910390a160019050919050565b6000600560008373ffffffffffffffffffffffffffffffffffffffff1673ffffffffffffffffffffffffffffffffffffffff168152602001908152602001600020549050919050565b6000809054906101000a900473ffffffffffffffffffffffffffffffffffffffff1681565b60028054600181600116156101000203166002900480601f016020809104026020016040519081016040528092919081815260200182805460018160011615610100020316600290048015610f9c5780601f10610f7157610100808354040283529160200191610f9c565b820191906000526020600020905b815481529060010190602001808311610f7f57829003601f168201915b505050505081565b60008060009054906101000a900473ffffffffffffffffffffffffffffffffffffffff1673ffffffffffffffffffffffffffffffffffffffff163373ffffffffffffffffffffffffffffffffffffffff16141515611090576040517f08c379a00000000000000000000000000000000000000000000000000000000081526004018080602001828103825260348152602001807f4f6e6c7920746865206f776e6572206f66207468697320636f6e74726163742081526020017f6d61792074616b65207468617420616374696f6e00000000000000000000000081525060400191505060405180910390fd5b600082111515611108576040517f08c379a00000000000000000000000000000000000000000000000000000000081526004018080602001828103825260208152602001807f416d6f756e74206d7573742062652067726561746572207468616e207a65726f81525060200191505060405180910390fd5b61117b82600560008060009054906101000a900473ffffffffffffffffffffffffffffffffffffffff1673ffffffffffffffffffffffffffffffffffffffff1673ffffffffffffffffffffffffffffffffffffffff168152602001908152602001600020546115a490919063ffffffff16565b600560008060009054906101000a900473ffffffffffffffffffffffffffffffffffffffff1673ffffffffffffffffffffffffffffffffffffffff1673ffffffffffffffffffffffffffffffffffffffff168152602001908152602001600020819055506111f4826004546115a490919063ffffffff16565b6004819055507f176b02bb2d12439ff7a20b59f402cca16c76f50508b13ef3166a600eb719354a6004546040518082815260200191505060405180910390a160019050919050565b6000808373ffffffffffffffffffffffffffffffffffffffff16141515156112cc576040517f08c379a00000000000000000000000000000000000000000000000000000000081526004018080602001828103825260168152602001807f43616e6e6f742062652061646472657373207a65726f0000000000000000000081525060200191505060405180910390fd5b600560003373ffffffffffffffffffffffffffffffffffffffff1673ffffffffffffffffffffffffffffffffffffffff1681526020019081526020016000205461135e83600560003373ffffffffffffffffffffffffffffffffffffffff1673ffffffffffffffffffffffffffffffffffffffff168152602001908152602001600020546115a490919063ffffffff16565b1015151561136b57600080fd5b6113bd82600560003373ffffffffffffffffffffffffffffffffffffffff1673ffffffffffffffffffffffffffffffffffffffff1681526020019081526020016000205461158b90919063ffffffff16565b600560003373ffffffffffffffffffffffffffffffffffffffff1673ffffffffffffffffffffffffffffffffffffffff1681526020019081526020016000208190555061145282600560008673ffffffffffffffffffffffffffffffffffffffff1673ffffffffffffffffffffffffffffffffffffffff168152602001908152602001600020546115a490919063ffffffff16565b600560008573ffffffffffffffffffffffffffffffffffffffff1673ffffffffffffffffffffffffffffffffffffffff168152602001908152602001600020819055508273ffffffffffffffffffffffffffffffffffffffff163373ffffffffffffffffffffffffffffffffffffffff167fddf252ad1be2c89b69c2b068fc378daa952ba7f163c4a11628f55a4df523b3ef846040518082815260200191505060405180910390a36001905092915050565b6000600660008473ffffffffffffffffffffffffffffffffffffffff1673ffffffffffffffffffffffffffffffffffffffff16815260200190815260200160002060008373ffffffffffffffffffffffffffffffffffffffff1673ffffffffffffffffffffffffffffffffffffffff16815260200190815260200160002054905092915050565b600082821115151561159957fe5b818303905092915050565b60008082840190508381101515156115b857fe5b80915050929150505600a165627a7a7230582002415b3462134dc9497815be59c2c33a6e7da3302f791bf273a3aa1a8de4b2c70029",
  "source": "pragma solidity ^0.4.23;\n\nimport \"./SafeMath.sol\";\n\ncontract Water {\n    using SafeMath for uint;\n\n    address public owner;\n\n    // Public variables of the token\n    string public name = \"Water Ledger Water\";\n    string public symbol = \"CLW\";\n    uint8 public decimals = 12; //megalitres\n    uint256 public totalSupply;\n\n    mapping (address => uint256) balances;\n    mapping (address => mapping (address => uint256)) allowed;\n\n    constructor() public {\n        owner = msg.sender;\n    }\n\n    function balanceOf(address who) external view returns (uint256 balance) {\n        balance = balances[who];\n    }\n    \n    function transfer(address to, uint256 value) external returns (bool) {\n        require(to != 0x0, \"Cannot be address zero\");\n        require(balances[msg.sender].add(value) >= balances[msg.sender]);\n\n        balances[msg.sender] = balances[msg.sender].sub(value);\n        balances[to] = balances[to].add(value);\n        emit Transfer(msg.sender, to, value);\n\n        return true;\n    }\n\n    function allowance(address tokenOwner, address spender) external view returns (uint remaining) {\n        return allowed[tokenOwner][spender];\n    }\n\n    function transferFrom(address from, address to, uint256 value) external returns (bool success) {\n        require(to != 0x0, \"Cannot be address zero\");\n        require(balances[from] >= value && allowed[from][msg.sender] >= value);\n\n        balances[from] = balances[from].sub(value);\n        allowed[from][msg.sender] = allowed[from][msg.sender].sub(value);\n        balances[to] = balances[to].add(value);\n\n        emit Transfer(from, to, value);\n        return true;\n    }\n\n    function approve(address spender, uint256 value) external returns (bool) {\n        require(allowed[msg.sender][spender] == 0 || value == 0);\n\n        allowed[msg.sender][spender] = value;\n        emit Approval(msg.sender, spender, value);\n        return true;\n    }\n\n    function mint(uint256 value) public onlyOwner() returns(bool) {\n        require(value > 0, \"Amount must be greater than zero\");\n\n        balances[owner] = balances[owner].add(value);\n        totalSupply = totalSupply.add(value);\n\n        emit Minted(totalSupply);\n\n        return true;\n    }\n\n    function burn(uint256 value) public onlyOwner() returns (bool) {\n        require(value > 0, \"Amount must be greater than zero\");\n        require(totalSupply >= value, \"Cannot burn more than you have\");\n\n        balances[owner] = balances[owner].sub(value);\n        totalSupply = totalSupply.sub(value);\n\n        emit Burned(totalSupply);\n\n        return true;\n    }\n\n    modifier onlyOwner() {\n        require(msg.sender == owner, \"Only the owner of this contract may take that action\");\n        _;\n    }\n\n    event Approval(address indexed owner, address indexed spender, uint256 value);\n    event Transfer(address indexed from, address indexed to, uint256 value);\n    event Minted(uint256 value);\n    event Burned(uint256 value);\n}",
  "sourcePath": "/Users/matt/Code/waterledger/core/contracts/Water.sol",
  "compiler": {
    "name": "solc",
    "version": "0.4.24+commit.e67f0147.Emscripten.clang"
  },
  "schemaVersion": "3.0.0-beta.0",
  "updatedAt": "2018-09-17T05:14:55.171Z"
}